:100000000C9436000C945E000C945E000C945E0020
:100010000C945E000C945E000C945E000C945E00E8
:100020000C945E000C945E000C945E000C945E00D8
:100030000C945E000C945E000C945E000C945E00C8
:100040000C94C3150C945E000C94AB130C942E14FA
:100050000C945E000C945E000C945E000C945E00A8
:100060000C945E000C945E007901E11311241FBE14
:10007000CFEFD8E0DEBFCDBF12E0A0E0B1E0ECE012
:10008000FEE202C005900D92A032B107D9F713E04D
:10009000A0E2B2E001C01D92AA36B107E1F710E07C
:1000A000CCE6D0E004C02297FE010E940017C836BB
:1000B000D107C9F70E94B4150C9404170C940000E2
:1000C0002A9888EF8EBD0DB407FEFDCF1EBC0DB47F
:1000D00007FEFDCF2A9A8EB5807C803491F1813461
:1000E00020F4882309F45BC00895803821F0803C17
:1000F00009F063C050C02A9888ED8EBD0DB407FE8C
:10010000FDCF1EBC0DB407FEFDCF2A9A0EB401FC34
:100110000CC02A988AED8EBD0DB407FEFDCF89EC88
:100120008EBD0DB407FEFDCF33C02A988AED8EBD7B
:100130000DB407FEFDCF8BEC8EBD0DB407FEFDCFD9
:1001400019C02A9888ED8EBD0DB407FEFDCF1EBCE8
:100150000DB407FEFDCF2A9A0EB401FC0EC02A98FA
:100160008AED8EBD0DB407FEFDCF8BEC8EBD0DB4B8
:1001700007FEFDCF2A9A83E00FC02A988AED8EBD34
:100180000DB407FEFDCF89EC8EBD0DB407FEFDCF8B
:100190002A9A82E001C081E08093BD0208952A98E6
:1001A0008AED8EBD0DB407FEFDCF81ED8EBD0DB481
:1001B00007FEFDCF2A9A1092BD020895FC01229AF3
:1001C0002A9A259A239A2498229A80E58CBD81E068
:1001D0008DBD21982A988AE88EBD0DB407FEFDCF0B
:1001E00088E18EBD0DB407FEFDCF2A9A2A988AE7D2
:1001F0008EBD0DB407FEFDCF80E28EBD0DB407FEAF
:10020000FDCF2A9A2A988AE78EBD0DB407FEFDCF4E
:100210001EBC0DB407FEFDCF2A9A20E030E061E05D
:1002200070E088E60DC02A988EBD0DB407FEFDCFA4
:100230001EBC0DB407FEFDCF2A9A0EB400FC0AC006
:10024000AB01421B530B2150304069F7452B11F491
:100250008FEF08952A988AED8EBD0DB407FEFDCF6D
:1002600081EC8EBD0DB407FEFDCF2A9A2A9882ED4F
:100270008EBD0DB407FEFDCF80E68EBD0DB407FE2A
:10028000FDCF2A9A2A988AEE8EBD0DB407FEFDCFC7
:1002900084E08EBD0DB407FEFDCF2A9A88EE2A9821
:1002A0008EBD0DB407FEFDCF1EBC0DB407FEFDCF05
:1002B0002A9A0EB402FEF3CFCF010E9460002A9862
:1002C0008AEC8EBD0DB407FEFDCF80E28EBD0DB46D
:1002D00007FEFDCF2A9A2A9882E88EBD0DB407FE4C
:1002E000FDCF81E08EBD0DB407FEFDCF2A9A80E0E0
:1002F0000895AF92BF92CF92DF92EF92FF920F9349
:100300001F9300E212E0C8010E948B0287E992E08D
:10031000B80140E051E02BE031E002E111E0A7E25A
:10032000EA2EA1E0FA2EFBE2CF2EF1E0DF2EEFE382
:10033000AE2EE1E0BE2E0E94920D1F910F91FF9014
:10034000EF90DF90CF90BF90AF900895DF93CF9361
:1003500000D0CDB7DEB780E292E00E943D0C8091E4
:10036000AC029091B602882309F4A4C0992349F401
:1003700081E08093B60284EC92E069E471E00E942F
:10038000B11586E090E09A83898387E992E0BE0107
:100390006F5F7F4F47EB52E00E947F0E89819A8109
:1003A000892B09F491C08091B702813061F08130CE
:1003B00028F0823069F08330B1F40FC084EC92E011
:1003C00061E671E00EC084EC92E06CE671E009C079
:1003D00084EC92E062E771E004C084EC92E06AE7AA
:1003E00071E00E94B11584EC92E061E871E00E9436
:1003F000B1154091B9025091BA026091BB0270915F
:10040000BC0284EC92E02AE030E00E941E1584ECED
:1004100092E060E971E00E94B11584EC92E0609195
:10042000B7024AE050E00E942D1584EC92E0609102
:10043000B8024AE050E00E942D1584EC92E061EA97
:1004400071E00E94B1156091B90284EC92E070E015
:100450004AE050E00E947F1584EC92E061EA71E08E
:100460000E94B1156091BA0284EC92E070E04AE01B
:1004700050E00E947F1584EC92E061EA71E00E94F6
:10048000B1156091BB0284EC92E070E04AE050E06C
:100490000E947F1584EC92E061EA71E00E94B11540
:1004A0006091BC0284EC92E070E04AE050E00E946F
:1004B00092150AC0992341F01092B60284EC92E0A2
:1004C00063EA71E00E94B1150F900F90CF91DF9118
:1004D000089584EC92E040E052EC61E070E026E0A8
:1004E0000E949B1280E292E00E94DE008F3F39F46E
:1004F00084EC92E060EC71E00E94B115FFCF1092A5
:10050000B60284EC92E067ED71E00E94B1150895A7
:10051000089580E00895FC0185EE91E09183808349
:10052000158281E0818712869F012E5F3F4F1086E2
:1005300037832683128288E083838CE38483DF0100
:1005400081E091E01D961C921D971E969C931E972C
:100550001F961C921F971C963C932E931B978F5FA0
:100560001596803179F7158281E18093BE02EA58B1
:10057000FF4F10820895DC01662319F4FC013696C2
:1005800011C0FC0121E08585861729F02F5F359683
:100590002031C9F717C085E0289FF0011124369655
:1005A000EA0FFB1F309771F0A081B181109761F0C5
:1005B000238190E005C08C91841731F013969F5FE2
:1005C0009217C8F3A0E0B0E0CD010895DC01211539
:1005D000310511F488ED0895662319F4FC0136966F
:1005E00011C0FC0151E08585861729F05F5F3596C3
:1005F0005031C9F70FC085E0589FF001112436969D
:10060000EA0FFB1F309731F06283318320834383ED
:1006100080E0089586ED0895AF92BF92DF92EF9249
:10062000FF920F931F93CF93DF937C01D62E590136
:10063000662319F4EC01269611C0FC0191E0858532
:100640008D1529F09F5F35969031C9F767C085E019
:10065000989FE00111242696CE0DDF1D209709F406
:100660005DC088819981892B11F487ED58C0C7013D
:100670006D2D0E94BB02FC01D5018D939C930097C8
:1006800011F48BED4CC0228126952695822F90E0A7
:1006900040971CF080E090E80BC081E090E0A0E083
:1006A000B0E004C0880F991FAA1FBB1F2A95D2F77C
:1006B0000197F801918380832A9882EE8EBD0DB454
:1006C00007FEFDCFDEBC0DB407FEFDCF2A9A2A98A7
:1006D00088ED8EBD0DB407FEFDCF1EBC0DB407FE28
:1006E000FDCF2A9A2EB58C81882349F086E790E0C9
:1006F000E80EF91ED7019C91922B926002C0922FB6
:10070000997F2A988AED8EBD0DB407FEFDCF9EBD60
:100710000DB407FEFDCF2A9A80E001C086EDDF917F
:10072000CF911F910F91FF90EF90DF90BF90AF900E
:100730000895AC01662321F49C012A5F3F4F14C049
:10074000FC0121E08585861739F02F5F3596203131
:10075000C9F720E030E008C085E0289F900111240F
:100760002A5F3F4F240F351FC9010895DC0167FD43
:1007700069C0283008F066C0442319F4FD0191E0F7
:1007800006C015968C9115978730C1F75BC085859B
:10079000882329F09F5F35969031C9F753C06623AF
:1007A00079F5292F30E0442399F0F901EE0FFF1F6E
:1007B000EE0FFF1FE20FF31FEA0FFB1F81E480879C
:1007C00015968C9115978F5F15968C9315970BC086
:1007D000F901EE0FFF1FEE0FFF1FE20FF31FEA0FED
:1007E000FB1F81E08087892F90E0FC01EE0FFF1F47
:1007F000EE0FFF1FE80FF91FEA0FFB1F808508951A
:100800006770660F660F660F442361F015968C9132
:1008100015978F5F15968C9315978770262F2064F8
:10082000282B02C02770262B892F90E0FC01EE0FA9
:10083000FF1FEE0FFF1FE80FF91FEA0FFB1F2087B6
:10084000822F089580E00895DF92EF92FF920F9338
:100850001F93CF93DF93EC01662309F44BC0E62E80
:10086000FF24F701EE0FFF1FEE0FFF1FEE0DFF1D20
:10087000E80FF91F008506FF27C011E0B7E0DB2E67
:10088000D022812F81508F30A8F011E013C0812F2A
:1008900090E0FC01EE0FFF1FEE0FFF1FE80FF91FA6
:1008A000EC0FFD1F808586958695869587708D1542
:1008B00021F01F5F103158F318C0CE01612F0E9444
:1008C0002404DFCF81508D83F701EE0FFF1FEE0F61
:1008D000FF1FEE0DFF1DEC0FFD1F108681E08187CD
:1008E00012862296D783C68305C08D810770801734
:1008F00059F7E8CFDF91CF911F910F91FF90EF90C3
:10090000DF900895DC01962F613491F49D012E5FF4
:100910003F4FFD0181E091E0158696871786348769
:1009200023878F5F35968031B9F715961C9208950D
:10093000FD0161E08585891729F06F5F359660318B
:10094000C9F760E0CD010E94240408957F928F9240
:100950009F92AF92BF92CF92DF92EF92FF920F934E
:100960001F93CF93DF936C01E42EA22E902EBB2415
:10097000C62FD0E0AB96CC0FDD1FC80FD91F042FB8
:1009800010E0055D1F4F000F111F0C0D1D1D8AEE9D
:10099000782E88248394E881F981A081B181129610
:1009A0000D90BC91A02DCF016E2D4A2D292DFD015A
:1009B0000995F82E80EEF81609F5EE2089F42A98AC
:1009C0007EBC0DB407FEFDCF8EBC0DB407FEFDCF7F
:1009D0002A9A66E670E080E090E00E94541619C002
:1009E000D801ED91FC91A081B1811A962D913C9195
:1009F0001B97CF016A2DF90109950BC0BDE0FB16CD
:100A000029F482E08B1508F449C017C0FF2009F0D3
:100A100045C0E881F981A081B1810D90BC91A02DE4
:100A2000CF016E2D4A2D292DFD010995F82EADE03F
:100A30008A1759F4B2E0BB1550F064E670E080E02C
:100A400090E00E945416B394A6CF882339F1EE208B
:100A500099F42A988AEE8EBD0DB407FEFDCF81E091
:100A60008EBD0DB407FEFDCF2A9A66E670E080E0E9
:100A700090E00E94541612C0EE2DF0E0BB96EE0FEF
:100A8000FF1FEC0DFD1DA081B181ED91FC9111972F
:100A90000284F385E02DCD016A2D09958F2DDF911C
:100AA000CF911F910F91FF90EF90DF90CF90BF906B
:100AB000AF909F908F907F9008954F925F926F922A
:100AC0007F928F929F92AF92BF92CF92DF92EF92DE
:100AD000FF920F931F93CF93DF93162FA42E4901FC
:100AE0000E940B166B017C0180E197E2A0E0B0E070
:100AF000C80ED91EEA1EFB1E00E0BB24C0E0D0E0F9
:100B000062EF462EA12A58EC552E4AEC642E30E8AE
:100B1000732E18EF47C02A984EBC0DB407FEFDCFC8
:100B2000AEBC0DB407FEFDCF2A9A18C02A985EBC51
:100B30000DB407FEFDCF1EBC0DB407FEFDCF2A9AF3
:100B40000EB407FE0BC02A986EBC0DB407FEFDCF95
:100B50007EBC0DB407FEFDCF2A9A07C00E940B167B
:100B60006C157D058E059F0508F32A981EBD0DB4F2
:100B700007FEFDCF1EBC0DB407FEFDCF2A9A0EB5B1
:100B80000F70043019F00E30A9F408C021968114BA
:100B9000910441F0C815D90529F40CC0B39493E031
:100BA000B91641F00E940B166C157D058E059F0548
:100BB00008F4B1CF802FDF91CF911F910F91FF905B
:100BC000EF90DF90CF90BF90AF909F908F907F90ED
:100BD0006F905F904F9008952F923F924F925F9247
:100BE0006F927F928F929F92AF92BF92CF92DF923D
:100BF000EF92FF920F931F93CF93DF934C01EB0182
:100C00005A0179016801F90100811181698011821D
:100C100010828A8181FD02C090E101C090E22A9891
:100C20008AEE8EBD0DB407FEFDCF9EBD0DB407FE4E
:100C3000FDCF2A9AB1E04B2E512CAAEC2A2EF4E0DB
:100C40003F2E702EC40160E0488195010E945D0531
:100C5000582F863061F52A98F8EFFEBD0DB407FED7
:100C6000FDCF1EBC0DB407FEFDCF2A9A8EB590E0D5
:100C7000E5E096958795EA95E1F7842595258170BD
:100C8000382F330F2A812D7F232B2A83882311F4B9
:100C900080E101C080E22A982AEE2EBD0DB407FE45
:100CA000FDCF8EBD0DB407FEFDCF2A9ACBCF882392
:100CB00009F077C02A9868EC6EBD0DB407FEFDCF31
:100CC0001EBC0DB407FEFDCF2A9A0EB402FC02C072
:100CD00050EF67C02A9870E37EBD0DB407FEFDCFCC
:100CE0001EBC0DB407FEFDCF2A9A4EB5842F90E0AE
:100CF0000817190708F4472DF701808191812A9878
:100D0000F8E0FEBD0DB407FEFDCF242F30E0B801A2
:100D1000681B790BCB0177FF02C080E090E082175F
:100D200093070CF49C01922FF60107C01EBC0DB472
:100D300007FEFDCF91508EB581939923B9F7C20E6E
:100D4000D11C2A9A2A982EBC0DB407FEFDCF3EBCBA
:100D50000DB407FEFDCF2A9AF70180819181840F9F
:100D6000911D91838083461520F08017910708F428
:100D700069CF2A9888EF8EBD0DB407FEFDCF1EBC4B
:100D80000DB407FEFDCF2A9A8EB590E074E09695DB
:100D900087957A95E1F78170880F2A812D7F282B1E
:100DA0002A83852FDF91CF911F910F91FF90EF90B4
:100DB000DF90CF90BF90AF909F908F907F906F907B
:100DC0005F904F903F902F900895AF92BF92CF9237
:100DD000DF92EF92FF920F931F93DF93CF9300D098
:100DE00000D0CDB7DEB77C01690158011A821982A3
:100DF0001C821B829E012F5F3F4F8E010D5F1F4F94
:100E00000E940C03882349F469817A814B815C81BB
:100E1000C701960185010E94EC050F900F900F907D
:100E20000F90CF91DF911F910F91FF90EF90DF9086
:100E3000CF90BF90AF9008952F923F924F925F92C4
:100E40006F927F928F929F92AF92BF92CF92DF92DA
:100E5000EF92FF920F931F93DF93CF9300D000D0B8
:100E60000F92CDB7DEB77D836C835B834A83E22E1E
:100E7000932EDB011196FC908F2D8150803410F061
:100E80001AED51C10E940B165B016C0180E197E2E3
:100E9000A0E0B0E0A80EB91ECA1EDB1EAC81BD8169
:100EA00012968C9180FD02C090E401C090E82A98CF
:100EB0008AEE8EBD0DB407FEFDCF9EBD0DB407FEBC
:100EC000FDCF2A9A28012E2D392DC9013C0110E0B1
:100ED0002F2C332408C143012614370408F44101A0
:100EE00089822A98B2E1BEBDF201982D06C00DB4E8
:100EF00007FEFDCF81918EBD91509923C1F70DB4AE
:100F000007FEFDCF2A9A2A98EAE3EEBD0DB407FE4C
:100F1000FDCFF981FEBD0DB407FEFDCF2A9AAC814D
:100F2000BD818C912A98B2EFBEBD0DB407FEFDCFF6
:100F300080628EBD0DB407FEFDCF2A9A2A98E8EC98
:100F4000EEBD0DB407FEFDCF1EBC0DB407FEFDCFF8
:100F50002A9A0EB407FEF2CF2A98FAECFEBD0DB421
:100F600007FEFDCF20E82EBD0DB407FEFDCF2A9A67
:100F70002A9838EF3EBD0DB407FEFDCF1EBC0DB460
:100F800007FEFDCF2A9A1EB51F7000E0EE24FF2455
:100F900096C00894E11CF11C8A819B810097A9F1FD
:100FA000E816F90691F5A3C00F5F033071F59FC0F5
:100FB0002A9898EF9EBD0DB407FEFDCF1EBC0DB460
:100FC00007FEFDCF2A9A8EB590E025E0969587958D
:100FD0002A95E1F7A1E0B0E08A279B278170EC8198
:100FE000FD8122812E7F282B2283882311F480E427
:100FF00001C080E82A98FAEEFEBD0DB407FEFDCFD1
:101000008EBD0DB407FEFDCF2A9A2A982AE32EBD85
:101010000DB407FEFDCF1EBC0DB407FEFDCF2A9A0E
:10102000D2018C912A98B2E1BEBD0DB407FEFDCF6E
:101030008EBD0DB407FEFDCF2A9A2A98EAE3EEBDD5
:101040000DB407FEFDCFF981FEBD0DB407FEFDCF47
:101050002A9AAC81BD818C912A98B2EFBEBD0DB4A5
:1010600007FEFDCF80628EBD0DB407FEFDCF2A9A2C
:101070002A98E8ECEEBD0DB407FEFDCF1EBC0DB402
:1010800007FEFDCF2A9A0EB407FEF2CF2A98FAEC9B
:10109000FEBD0DB407FEFDCF20E82EBD0DB407FE4A
:1010A000FDCF2A9A2A9838EF3EBD0DB407FEFDCF3A
:1010B0001EBC0DB407FEFDCF2A9A1EB51F7011236A
:1010C00009F44AC00E940B166A157B058C059D0524
:1010D00008F042C0163009F46BCF1E3009F464CF1B
:1010E000143029F456CF6114710409F0F4CE2A9813
:1010F00088EF8EBD0DB407FEFDCF1EBC0DB407FEFC
:10110000FDCF2A9A8EB590E005E0969587950A95D1
:10111000E1F78170AC81BD8112962C9112972E7FE0
:10112000282B12962C93812F0F900F900F900F90D9
:101130000F90CF91DF911F910F91FF90EF90DF9073
:10114000CF90BF90AF909F908F907F906F905F9067
:101150004F903F902F90089568187908480C591CBB
:10116000C2CF2F923F924F925F926F927F928F9257
:101170009F92AF92BF92CF92DF92EF92FF920F9326
:101180001F93DF93CF93CDB7DEB761970FB6F89477
:10119000DEBF0FBECDBF3C01498BD22EF02E48A43E
:1011A00059A42AA43BA41A8219821C821B829E0184
:1011B0002F5F3F4F8E010D5F1F4F0E940C03182FB2
:1011C000882309F0B1C0D986FA86EB86CC86BE8624
:1011D000AD86988A8F862A9882E28EBDFE01399666
:1011E0009E01205F3F4F0DB407FEFDCF80818EBD75
:1011F000E217F30711F03196F6CF0DB407FEFDCFDD
:101200002A9A2B813C81C30160E149890E945D05D6
:10121000182F882309F088C0EE24D7FE02C0EE24E0
:10122000E3944114510409F473C0E981FA81EE207A
:1012300009F45FC0828182608283540158EFF52EE9
:1012400041E0C42ED12C50C02EA13FA13E832D835E
:1012500069817A814B815C81C3019E012B5F3F4F85
:1012600082010E94EC05182F8630E1F4E981FA81B1
:101270002A98FEBC0DB407FEFDCF1EBC0DB407FEC0
:10128000FDCF2A9A8EB590E035E0969587953A95F0
:10129000E1F78C259D258170880F22812D7F282BD9
:1012A000228322C0882309F03FC02114310499F021
:1012B000D101ED91FC910190F081E02D6D817E8155
:1012C000C4018A199B0998878F83C101A2019E01DD
:1012D000295F3F4F09958D819E812EA13FA18217E5
:1012E0009307B0F0A81AB90AA114B10409F0ACCF61
:1012F0000DC08281816082834B815C81C301BF010B
:101300002EA13FA182010E941C07182F112361F416
:10131000EE2011F460E801C060EA2B813C81C3013A
:1013200049890E945D05182F812F61960FB6F894A8
:10133000DEBF0FBECDBFCF91DF911F910F91FF9008
:10134000EF90DF90CF90BF90AF909F908F907F9065
:101350006F905F904F903F902F9008958F929F9243
:10136000AF92BF92CF92EF920F93E22E00D000D0B7
:1013700000D0EDB7FEB73196ADB7BEB712961C924E
:101380001E921197138212821582148220E009E0C6
:10139000CC24AA24BB24882499240E94B1082DB708
:1013A0003EB72A5F3F4F0FB6F8943EBF0FBE2DBF2A
:1013B0000F91EF90CF90BF90AF909F908F90089536
:1013C0008F929F92AF92BF92CF92EF920F931F9303
:1013D000E22E00D000D000D0EDB7FEB73196ADB709
:1013E000BEB712961C921E9211971382128215821A
:1013F000148220E005E0CC24AA24BB24882499246C
:101400000E94B108182F8DB79EB706960FB6F894B4
:101410009EBF0FBE8DBF6CE271E080E090E00E9445
:101420005416812F1F910F91EF90CF90BF90AF90E6
:101430009F908F900895EF92FF920F931F93CF93F9
:10144000DF93EC01342F122F0696F1F18E819F81EC
:10145000892B11F417ED39C02A87FC2EED2ECE0111
:1014600040E0232F0E94B603082F882311F414EDC7
:101470002CC0FE0191E08585801729F09F5F35968D
:101480009031C9F721C0892F90E0FC01EE0FFF1FBA
:10149000EE0FFF1FE80FF91FCF0106968C0F9D1F5F
:1014A000892B91F0EC0FFD1F1287CE0160E040E028
:1014B000202F0E94E009182F882339F08F2D9E2DB0
:1014C000602F0E94820401C016ED812FDF91CF9121
:1014D0001F910F91FF90EF9008958F929F92AF927E
:1014E000BF92CF92EF92FF920F934901302F00D01D
:1014F00000D000D0EDB7FEB73196ADB7BEB71296AB
:101500009C928E921197F382E2821582148220E8D7
:1015100006E0E32EE2E0CE2EAA24BB240E94B1080E
:101520002DB73EB72A5F3F4F0FB6F8943EBF0FBEB0
:101530002DBF0F91FF90EF90CF90BF90AF909F90F5
:101540008F9008953F924F925F926F927F928F9209
:101550009F92AF92BF92CF92DF92EF92FF920F9342
:101560001F93DF93CF93CDB7DEB7C054D0400FB6F3
:10157000F894DEBF0FBECDBF5C01562E442E322E36
:10158000380129E030E0032D6E010894C11CD11C04
:1015900076010E946D0A882349F500D000D000D062
:1015A000EDB7FEB731968B809C8080E490E0ADB7BC
:1015B000BEB712969C938E931197D382C282758286
:1015C0006482C501652D442D20E806E0E32CF2E09D
:1015D000CF2EAA24BB240E94B1082DB73EB72A5FA4
:1015E0003F4F0FB6F8943EBF0FBE2DBFC05CDF4F1C
:1015F0000FB6F894DEBF0FBECDBFCF91DF911F9124
:101600000F91FF90EF90DF90CF90BF90AF909F90A1
:101610008F907F906F905F904F903F9008958F9242
:101620009F92AF92BF92CF92EF920F931F93490177
:1016300000D000D000D0EDB7FEB73196ADB7BEB741
:1016400012963C932E931197138302831582148272
:1016500020E806E0EE24CC24C394AA24BB240E94F4
:10166000B1082DB73EB72A5F3F4F0FB6F8943EBF83
:101670000FBE2DBF1F910F91EF90CF90BF90AF90F5
:101680009F908F9008952F923F924F925F926F920A
:101690007F928F929F92AF92BF92CF92DF92EF9202
:1016A000FF920F931F93DF93CF93CDB7DEB765976C
:1016B0000FB6F894DEBF0FBECDBF4C01662E342EA0
:1016C000722E198288E08A838CE38B83D401ED919A
:1016D000FC910190F081E02DC40160E009956C015E
:1016E000009711F486EDA6C0FC01E080F180CE01E8
:1016F0000196918380837482B4E0AB2EB12CAC0E42
:10170000BD1EC40160E040E022E130E085010E949E
:101710000F0BD601ED92FC92882309F08BC0F501E6
:1017200040845184E284F3842480A6E5AA2EB12C5F
:10173000A80CB91C650110E0F601A081B1811097D9
:1017400099F1ED91FC9111970084F185E02DCD0187
:101750000995882349F5D601ED91FC91A081B181CD
:101760001C962D913C911D97CF01B201A701F90163
:101770000995882379F4D601ED91FC91A081B1817E
:101780001E962D913C911F97CF01622DF90109956D
:10179000882351F0C401612F462D232D072D0E946F
:1017A000A604813D09F046C01F5FE2E0F0E0CE0EE6
:1017B000DF1E103109F610E0F501A081B18110970C
:1017C00061F1ED91FC9111970084F185E02DCD013F
:1017D0000995882311F5D501ED91FC91A081B18186
:1017E0001C962D913C911D97CF01B201A701F901E3
:1017F0000995882391F4D501ED91FC91A081B181E7
:101800001E962D913C911F97CF01622DF9010995EC
:10181000882319F428C0893D69F41F5FE2E0F0E0F5
:10182000AE0EBF1E103141F6C401662D432D272D8B
:101830000E941B0A65960FB6F894DEBF0FBECDBF9F
:10184000CF91DF911F910F91FF90EF90DF90CF909C
:10185000BF90AF909F908F907F906F905F904F90D0
:101860003F902F900895C401612F462D232D072D01
:101870000E94A604813D79F6D0CFBF92CF92DF922D
:10188000EF92FF920F931F93CF93DF936C011999FF
:101890001FC02A9888EC8EBD0DB407FEFDCF1EBC7C
:1018A0000DB407FEFDCF2A9A0EB405FC02C090E0ED
:1018B00004C0C6010E94600090E22A988AEC8EBDA6
:1018C0000DB407FEFDCF9EBD0DB407FEFDCF2A9AD5
:1018D0008091BD02813049F0813048F0823019F0AA
:1018E000833039F50DC0BB240DC083E106C0809163
:1018F000BE02807F8031E9F081E18093BE0219C091
:10190000BB24B3948091BE02807F803199F40E9401
:101910000B1668537F4F8F4F9F4F6093C002709399
:10192000C1028093C2029093C30280E28093BE0200
:1019300001C0BB2416E5E12EF12CEC0CFD1CE701E7
:1019400010E0A881B981109741F0ED91FC911197B9
:101950000680F781E02DCD0109951F5F2296103199
:1019600081F78091BE02803409F452C0813440F482
:10197000803269F18033F1F1813109F0B4C00AC0DD
:10198000813509F48DC0803809F49CC0803509F098
:10199000AAC066C086E790E0C80ED91EF601108284
:1019A00010E0F701A081B181109741F0ED91FC9119
:1019B00011970480F581E02DCD0109951F5F82E02C
:1019C00090E0E80EF91E103161F782E18AC0E090E4
:1019D000C002F090C1020091C2021091C3020E94A5
:1019E0000B16E616F7060807190708F07CC080E317
:1019F0008093BE022A988AEE8EBD0DB407FEFDCFFD
:101A000081E08EBD0DB407FEFDCF2A9A80E469C047
:101A10002A9888EE8EBD0DB407FEFDCF1EBC0DB416
:101A200007FEFDCF2A9A0EB400FC5DC02A9888ED0F
:101A30008EBD0DB407FEFDCF1EBC0DB407FEFDCF5D
:101A40002A9A9EB52A988AED8EBD0DB407FEFDCF69
:101A500098609EBD0DB407FEFDCF2A9A80E541C077
:101A60002A9888EC8EBD0DB407FEFDCF1EBC0DB4C8
:101A700007FEFDCF2A9A0EB406FE35C081E580939D
:101A8000BE020E940B166C5E7F4F8F4F9F4F60937C
:101A9000C0027093C1028093C2029093C30223C01C
:101AA000E090C002F090C1020091C2021091C30206
:101AB0000E940B16E616F70608071907A0F480E83F
:101AC0008093BE02C60160E040E02B2D0E94430BD4
:101AD000882331F0823D39F08093BF0280EA01C053
:101AE00080E98093BE02DF91CF911F910F91FF900B
:101AF000EF90DF90CF90BF90089580E00895FC01B3
:101B000082890895FC0185890895615D784111F00D
:101B100080E0089580E040505D424230510508F475
:101B200081E00895AF92BF92CF92DF92EF92FF9241
:101B30000F931F93CF93DF93DC018FEE91E011960B
:101B40009C938E93489613969C938E93129715961A
:101B50005C934E93149717963C932E931697199671
:101B60001C930E9318971B96FC92EE921A971D9653
:101B7000DC92CE921C971F96BC92AE921E97519605
:101B80007C936E93509752961C92529753961C9248
:101B9000539781E054968C93549755961C92559781
:101BA000ED0120E030E01E8A922F222311F080E028
:101BB00001C088E08F8B188E992311F091E001C04D
:101BC0009FE0F901EE0FFF1FE20FF31FEA0FFB1F6B
:101BD000990F990F808D8370892B808F2F5F3F4FD6
:101BE000239623303105F9F65096CD91DC9151972B
:101BF0002097C1F0FE01EA5AFF4F20E030E08081DB
:101C00009181892B49F4255D3F4F220F331FC20F6D
:101C1000D31FB983A88306C02F5F3F4F3296203170
:101C2000310569F7DF91CF911F910F91FF90EF90F0
:101C3000DF90CF90BF90AF900895DC01ED91FC91C3
:101C40000190F081E02D09950895EF92FF920F9396
:101C500002970E942F0E0F91FF90EF900895EF9240
:101C6000FF92CF93DF93DC01E70154968C91549758
:101C70008330F9F053966C9353978B8181FF19C091
:101C80002A81322F331F3327331F82E0831B90E0DA
:101C9000FC01EE0FFF1FE80FF91FEA0FFB1F2F706B
:101CA000268B8C81878B54968C9154978F5F54969A
:101CB0008C93DF91CF91FF90EF9008950F931F9336
:101CC0008C01DC015096ED91FC915197A081B1817E
:101CD00014962D913C911597CF01F8016289F90175
:101CE000099581E0D80154968C93549752961C9292
:101CF000529755961C9280E01F910F9108950F9373
:101D00001F93FC019B018A01808991896289418D21
:101D10000E94E5061F910F910895CF92DF92EF92F6
:101D2000FF920F931F93CF93DF93EC016B018A0116
:101D300088A1823049F1833030F4882351F081301A
:101D400009F0C6C010C0833029F1843009F0C0C04A
:101D50003DC082E08C832D813E8138872F838A8726
:101D6000898781E088A3CE010796B601A8010E9469
:101D70003312882309F4AEC0ED81FE81808189A3EE
:101D800081818AA382E088A3CE0142969E838D83BF
:101D900083E088A38AA1843051F0853018F4823022
:101DA00061F406C0853041F0813239F403C01BA2D2
:101DB00087E002C089A182508C838D819E819887A3
:101DC0008F838C818A87898784E088A3F0E1EF2E56
:101DD000F12CEC0EFD1E8AA1843091F0853039F192
:101DE000823009F042C0CE010796B601A8010E94D8
:101DF0003312882309F46EC0F70185818CA363C078
:101E0000CE010796B601A8010E943312882309F477
:101E100061C088A5882309F056C081E08BA3F70133
:101E200082818EA383818FA387818DA34CC0CE0135
:101E30000796B601A8010E943312882309F44AC00C
:101E40008BA1882309F43FC0AA81BB811097D9F1E7
:101E5000ED91FC9111970190F081E02DCD016CA1E5
:101E60004EA12FA10DA109952EC089A12D85222358
:101E700019F0213021F517C090E002979F878E87D7
:101E800081E08D8710C0215030403F872E87F601BA
:101E900080819181019691838083F8018081918175
:101EA0000197918380832E853F852115310531F07F
:101EB000F80180819181892B31F701C01D868E85C3
:101EC0009F85892B39F4CE0140969E838D8318A27D
:101ED00081E001C080E0DF91CF911F910F91FF90D1
:101EE000EF90DF90CF900895CF92DF92EF92FF9224
:101EF0000F931F93DF93CF9300D000D0CDB7DEB701
:101F00008C017A8369835C834B83A3E0CA2ED12C36
:101F1000CC0EDD1E7E010894E11CF11C07C0C80137
:101F2000B601A7010E948D0E882321F089819A8134
:101F3000892BA9F70F900F900F900F90CF91DF9101
:101F40001F910F91FF90EF90DF90CF9008958F92A7
:101F50009F92AF92BF92CF92EF920F93CF93DF9366
:101F60009C01A62EDA010D900020E9F7A41BB50B09
:101F700000D000D000D0EDB7FEB73196EC018889D3
:101F80009989CDB7DEB7BA83A9834283538315827B
:101F90001482F901628940E020E404E3EE24CC24B9
:101FA000BB244D010E94B1082DB73EB72A5F3F4FB9
:101FB0000FB6F8943EBF0FBE2DBFDF91CF910F91AA
:101FC000EF90CF90BF90AF909F908F9008952F92F9
:101FD0003F924F925F926F927F928F929F92AF92B9
:101FE000BF92CF92DF92EF92FF920F931F93DF93F6
:101FF000CF93CDB7DEB7EE970FB6F894DEBF0FBE26
:10200000CDBF3C01362E242E2EAFDC015096AD9074
:10201000BC90519752968C91882311F019ED09C20A
:10202000D501ED91FC910190F081E02DC50160E0BA
:1020300009954C01009709F4FBC1FC01E080F18097
:10204000E114F10411F417EDF4C146E1442E512CD2
:10205000460C571CDC0111965C924E92EEAD149624
:10206000EC9333E0C32ED12CCC0EDD1ED301509661
:102070008D919C91519760E040E022E130E0860133
:102080000E940F0B182FF401F182E082882309F0DF
:10209000C6C1D501ED91FC910280F381E02DC5010F
:1020A000632D40E0222D0995282FF301828BD60164
:1020B00017968C91878B8089918960E040E00E941F
:1020C000E009182FD501ED91FC91882371F0D4011E
:1020D00014961C920480F581E02DC501D30152961F
:1020E0006C910995F301128AA4C1D40114961C9233
:1020F0000190F081E02DC501D30152966C910995B4
:10210000FC01009709F494C1BEADB483F30180894A
:102110009189628941E092010E94E602182F88238A
:1021200009F07DC1D60118968D919C911997815D1A
:10213000984109F07EC0F6018285938580509D42CA
:10214000029708F076C0E18822E0A22EB12CA60CFE
:10215000B71CFF249DE0292E92E0392E85E1882EC0
:10216000912C8C0E9D1E05E2C02ED12CCC0EDD1EB6
:102170003AC03E8A2D8AB88EAF8A1AA21DAA1EAA1C
:102180001FAA1DAEDB8ECA8EDD8ECC8E898D8F8F01
:102190008E8FD9A2C8A21CA21BA261E070E080E0D1
:1021A00090E00E945416D30150968D919C915197C6
:1021B00052966C9140E02F2D84010E94A20A882340
:1021C00061F0F30180899189628940E02F2D0E949E
:1021D000A20A182F882309F022C1D30154968C91AA
:1021E000833018F4F394FE1420F2F30184898330D1
:1021F00059F480899189628943E092010E94E60244
:10220000182F882309F00BC1D30150968D919C9112
:10221000519752966C91529740E053962C910E94A0
:10222000AE09182F882309F0FAC081E0F301858BED
:1022300000C18FEF9FEF9A83898361E070E080E0B7
:1022400090E00E9454161E010894211C311C00D0FD
:1022500000D000D0EDB7FEB73196D30150968D91E6
:102260009C91519712E0412E512CADB7BEB71296FA
:102270005C924E9211973382228215821482F3016E
:10228000628940E020EC03E3EE24CC24AA24BB24A2
:10229000B2E08B2E912C0E94B1082DB73EB72A5F79
:1022A0003F4F0FB6F8943EBF0FBE2DBF882341F1BC
:1022B00000D000D000D0EDB7FEB73196D3015096D4
:1022C0008D919C915197ADB7BEB712965C924E928C
:1022D00011973382228215821482F301628940E0D1
:1022E00020EC0E94B108182F2DB73EB72A5F3F4F50
:1022F0000FB6F8943EBF0FBE2DBF882309F08FC0E4
:1023000064E670E080E090E00E945416D3011496D9
:102310004D915C911597C30160E00E94A70F6AE0A0
:1023200070E080E090E00E945416F30146815781EE
:10233000C30161E00E94A70F6AE070E080E090E0D6
:102340000E945416D30118964D915C911997C301C0
:1023500062E00E94A70F6AE070E080E090E00E94D7
:102360005416F30142855385C30163E00E94A70F11
:102370006AE070E080E090E00E945416D3011C9661
:102380004D915C911D97C30164E00E94A70F6AE024
:1023900070E080E090E00E945416F3014685578576
:1023A000C30165E00E94A70F64E670E080E090E062
:1023B0000E94541600D000D000D0EDB7FEB7319681
:1023C000D30150968D919C915197ADB7BEB712969F
:1023D0001C921E9211971382128215821482F301AD
:1023E000628940E020E405E3EE24CC24AA24BB2447
:1023F000882499240E94B108182F2DB73EB72A5F70
:102400003F4F0FB6F8943EBF0FBE2DBF882339F45F
:1024100064E670E080E090E00E94541610EED30174
:10242000ED91FC910480F581E02DC301099501C077
:1024300016ED812FEE960FB6F894DEBF0FBECDBF1E
:10244000CF91DF911F910F91FF90EF90DF90CF9090
:10245000BF90AF909F908F907F906F905F904F90C4
:102460003F902F900895CF93DF93EC019A018881DC
:102470009981892BF9F42BC08B8190E0841B910901
:10248000E881F981E80FF91FDB018D919C91DC0156
:102490008C9180838A8181508A83F9018081918126
:1024A000019791838083DB018D919C911197019617
:1024B0008D939C934A81442331F0F901808191816D
:1024C000892BD1F604C08B818A8381E001C080E032
:1024D000DF91CF910895DC015C968C915C97FD01B2
:1024E000E80FF11DE35AFF4F20815C968C915C97B9
:1024F00090E001968F7390705C968C935C975696E3
:10250000ED91FC91579720835096ED91FC91519756
:102510008081806480835B969C915B975C968C91B4
:102520005C97981739F45296ED91FC9153978081FE
:102530008F7D80830895DF92EF92FF920F931F9318
:10254000CF93DF93EC017A018B01D22EE889F989D0
:1025500082E08083403081EE580780E0680780E0A9
:102560007807A1F060E079E08DE390E0A8019701A1
:102570000E94DC162150304040405040569547950F
:102580003795279580E12030380798F0E889F98958
:10259000108260E874E88EE190E0A80197010E9443
:1025A000DC162150304040405040569547953795B5
:1025B0002795EC85FD853083EE85FF852083188E79
:1025C000EC89FD89D082EA89FB89808180618083E2
:1025D000EA89FB89808188608083EA89FB89808120
:1025E00080688083EA89FB8980818F7D8083DF9189
:1025F000CF911F910F91FF90EF90DF900895FC0114
:10260000218D828D30E0205C3F4F281B31092F73D4
:102610003070C9010895FC01918D828D981719F4CD
:102620002FEF3FEF06C0828DE80FF11D858D282F1B
:1026300030E0C9010895DC0159969C9159975A964A
:102640008C915A97981719F42FEF3FEF10C05A96B4
:102650008C915A97FD01E80FF11D958D5A968C913A
:102660005A978F5F8F735A968C93292F30E0C90148
:102670000895CF93DF93EC01888D882361F419C00E
:102680008C9185FF0AC0E889F989808185FF05C0A2
:10269000CE010E946B12AA89BB898C9185FD05C071
:1026A000E889F989808186FD04C00FB607FEE8CF6E
:1026B000F4CFDF91CF9108950F931F93CF93DF93C2
:1026C000EC01062F9B8D8C8D981791F5E889F9897F
:1026D000808185FF2DC0EE89FF896083E889F989B3
:1026E0008081806480831DC00FB607FC08C0E88924
:1026F000F989808185FF03C0CE010E946B128C8D09
:10270000181791F38B8DFE01E80FF11DE35AFF4F6F
:1027100000831B8FEA89FB8980818062808381E04E
:10272000888F81E090E0DF91CF911F910F91089504
:102730001B8D1F5F1F73E3CF84E294E1892B51F05F
:1027400080E090E0892B31F00E942414882311F05E
:102750000E94000008951F920F920FB60F9211244D
:102760002F938F939F93EF93FF93E091D402F09177
:10277000D502808182FD16C0E091DA02F091DB0281
:1027800020819091DD029F5F9F738091DE029817F8
:1027900071F0E091DD02F0E0EC53FD4F258F909356
:1027A000DD0205C0E091DA02F091DB02E081FF91E9
:1027B000EF919F918F912F910F900FBE0F901F90CF
:1027C00018951092C7021092C60288EE93E0A0E01E
:1027D000B0E08093C8029093C902A093CA02B0935C
:1027E000CB0283E192E09093C5028093C40285EC12
:1027F00090E09093D1028093D00284EC90E090938B
:10280000D3028093D20280EC90E09093D502809323
:10281000D40281EC90E09093D7028093D60282ECB0
:1028200090E09093D9028093D80286EC90E0909348
:10283000DB028093DA021092DD021092DE02109227
:10284000DF021092E002089584EC92E00E94FF12F1
:1028500020E0892B09F021E0822F08951F920F922A
:102860000FB60F9211242F933F934F935F936F9363
:102870007F938F939F93AF93BF93EF93FF9384ECDA
:1028800092E00E946B12FF91EF91BF91AF919F91E7
:102890008F917F916F915F914F913F912F910F9009
:1028A0000FBE0F901F901895CF92DF92EF92FF927C
:1028B0000F931F93CF93DF937C016B018A01C0E0DC
:1028C000D0E00FC0D6016D916D01D701ED91FC9163
:1028D0000190F081E02DC7010995C80FD91F015063
:1028E00010400115110571F7CE01DF91CF911F91B5
:1028F0000F91FF90EF90DF90CF900895EF92FF92AD
:102900000F931F938C01DC01ED91FC910190F081FC
:10291000E02D6DE009957C01D801ED91FC910190CD
:10292000F081E02DC8016AE009959C012E0D3F1D44
:10293000C9011F910F91FF90EF900895CF93DF93FE
:10294000EC016115710519F420E030E00FC0DB01E6
:102950000D900020E9F71197A61BB70BE881F981CC
:102960000280F381E02DAD0109959C01C901DF9141
:10297000CF9108954F925F927F928F929F92AF92E4
:10298000BF92CF92DF92EF92FF920F931F93DF934C
:10299000CF93CDB7DEB7A1970FB6F894DEBF0FBEC9
:1029A000CDBF2C01742ECB01223008F42AE019A2ED
:1029B00031E2C32ED12CCC0EDD1E822E9924AA2406
:1029C000BB24672D752FA50194010E94DC167901A7
:1029D0008A01C801B701A50194010E94BD16472DC7
:1029E000461B0894C108D1084A3014F4405D01C068
:1029F000495CF6014083E114F1040105110521F061
:102A00007E2C5F2DC801DDCFC201B6010E949E144D
:102A1000A1960FB6F894DEBF0FBECDBFCF91DF9168
:102A20001F910F91FF90EF90DF90CF90BF90AF90EC
:102A30009F908F907F905F904F900895DC012115BB
:102A4000310541F4ED91FC910190F081E02D642F6E
:102A5000099508950E94BA140895EF92FF920F937A
:102A60001F939A01E62EFF2400E010E0B801A701B1
:102A70000E941E151F910F91FF90EF900895CF9225
:102A8000DF92EF92FF920F931F93CF93DF93EC01AE
:102A90006A017B012115310541F4E881F98101903A
:102AA000F081E02D642F09951FC02A303105D1F443
:102AB00077FF17C0E881F9810190F081E02D6DE288
:102AC00009958C0144275527BA014C195D096E09F7
:102AD0007F09CE012AE00E94BA149801280F391FFD
:102AE00004C02AE00E94BA149C01C901DF91CF9171
:102AF0001F910F91FF90EF90DF90CF900895EF928C
:102B0000FF920F931F937B019A010027F7FC00951A
:102B1000102FB801A7010E943F151F910F91FF9040
:102B2000EF900895CF92DF92EF92FF920F931F9351
:102B30006C017B019A010027F7FC0095102FB8016A
:102B4000A7010E943F158C01C6010E947E14080F48
:102B5000191FC8011F910F91FF90EF90DF90CF9048
:102B600008950E949E140895CF93DF930E94191632
:102B70000E946902CCE9D3E10E94A6012097E1F30B
:102B80000E949C13F9CF1F920F920FB60F9211243F
:102B90002F933F938F939F93AF93BF938091650340
:102BA00090916603A0916703B09168033091690327
:102BB0000196A11DB11D232F2D5F2D3720F02D571C
:102BC0000196A11DB11D2093690380936503909325
:102BD0006603A0936703B0936803809161039091AB
:102BE0006203A0916303B09164030196A11DB11D1E
:102BF0008093610390936203A0936303B093640393
:102C0000BF91AF919F918F913F912F910F900FBEE8
:102C10000F901F9018958FB7F8942091650330910D
:102C2000660340916703509168038FBFB901CA01E1
:102C30000895789484B5826084BD84B5816084BD34
:102C400085B5826085BD85B5816085BDEEE6F0E025
:102C5000808181608083E1E8F0E010828081826081
:102C60008083808181608083E0E8F0E08081816002
:102C70008083E1EBF0E0808184608083E0EBF0E032
:102C8000808181608083EAE7F0E0808184608083D6
:102C90008081826080838081816080838081806880
:102CA00080831092C1000895EF92FF920F931F93BB
:102CB000CF93DF937B018C013FB7F8948091610340
:102CC00090916203A0916303B091640326B5A89B21
:102CD00005C02F3F19F00196A11DB11D3FBFBA2FAE
:102CE000A92F982F8827820F911DA11DB11D52E099
:102CF000880F991FAA1FBB1F5A95D1F7EC0130C04E
:102D00000E94BC163FB7F8948091610390916203D2
:102D1000A0916303B091640326B5A89B05C02F3F23
:102D200019F00196A11DB11D3FBFBA2FA92F982FF1
:102D30008827820F911DA11DB11D32E0880F991FB8
:102D4000AA1FBB1F3A95D1F78C1B9D0B885E934041
:102D5000B8F20894E108F10801091109C851DC4FE3
:102D6000E114F1040105110559F6DF91CF911F918E
:102D70000F91FF90EF9008950895629FD001739F87
:102D8000F001829FE00DF11D649FE00DF11D929F07
:102D9000F00D839FF00D749FF00D659FF00D992746
:102DA000729FB00DE11DF91F639FB00DE11DF91F6A
:102DB000BD01CF0111240895A1E21A2EAA1BBB1B4D
:102DC000FD010DC0AA1FBB1FEE1FFF1FA217B307F7
:102DD000E407F50720F0A21BB30BE40BF50B661F0D
:102DE000771F881F991F1A9469F7609570958095D1
:102DF00090959B01AC01BD01CF010895EE0FFF1F1F
:0C2E00000590F491E02D0994F894FFCFA8
:102E0C005465616D5172616B656E005172616B65D9
:102E1C006E00546573742055736220486F73742070
:102E2C00536869656C6400302E32007777772E62B8
:102E3C007261646E69636F6C6C652E636F6D0030CC
:102E4C00303037373235333600436F6E6E6563740E
:102E5C00656420746F206163636573736F72790AA4
:102E6C00005468726F74746C653A20005961773A3B
:102E7C00200050697463683A2000526F6C6C3A20E1
:102E8C00004465636F64656420646174613A20007A
:102E9C0020526563656976656420646174613A20CB
:102EAC00000900446973636F6E6E6563746564201A
:102EBC0066726F6D206163636573736F72790A005C
:102ECC00556E61626C6520746F20696E69746961FE
:102EDC006C697365200A005374617274696E670AB9
:102EEC0000000000009903B603820400000000E714
:102EFC000F1D0E5E0E7D0D7F0D8802850D890282E1
:102F0C000D2F0EFEFF0000250E00000000740F00B8
:102F1C000000005C135414FF121B130B1339130025
:00000001FF
