:100000000C947B000C94A3000C94A3000C94A3000C
:100010000C94A3000C94A3000C94A3000C94A300D4
:100020000C94A3000C94A3000C94A3000C94001B4C
:100030000C94A3000C94A3000C94A3000C94A300B4
:100040000C9426370C94A3000C94EB320C946E3372
:100050000C94A3000C94A3000C94A3000C94A30094
:100060000C948E070C94A300084AD73B3BCE016E3C
:1000700084BCBFFDC12F3D6C74319ABD56833DDAFF
:100080003D00C77F11BED9E4BB4C3E916BAAAABE0E
:10009000000000803F00000000240027002A00002C
:1000A000000000250028002B00000000002300268F
:1000B00000290004040404040404040202020202ED
:1000C000020303030303030102040810204080011C
:1000D000020408102001020408102000000007009C
:1000E0000201000003040600000000000000000000
:1000F0000A027709213311241FBECFEFD8E0DEBFFB
:10010000CDBF12E0A0E0B1E0E4EDF8E702C0059059
:100110000D92A038B107D9F716E0A0E8B2E001C00F
:100120001D92AF32B107E1F710E0C6EFD0E004C096
:100130002297FE010E94643CC03FD107C9F70E948C
:1001400017370C94683C0C9400001F93FC0199270E
:100150008827BC01E89411911032E9F3193010F0AE
:100160001E30C8F31B3251F01D3249F4689406C0AA
:100170000E94DC00610F711D811D911D11911053B2
:100180001A30B0F33EF490958095709561957F4F4D
:100190008F4F9F4F1F910895FB01DC0102C001901A
:1001A0000D9241505040D8F70895FB01DC010190B9
:1001B0000D920020E1F70895592F482F372F262F51
:1001C000660F771F881F991F660F771F881F991F5B
:1001D000620F731F841F951F660F771F881F991F5B
:1001E00008952A9888EF8EBD0DB407FEFDCF1EBC82
:1001F0000DB407FEFDCF2A9A8EB5807C803491F134
:10020000813420F4882309F45BC00895803821F0FC
:10021000803C09F063C050C02A9888ED8EBD0DB4B3
:1002200007FEFDCF1EBC0DB407FEFDCF2A9A0EB40B
:1002300001FC0CC02A988AED8EBD0DB407FEFDCFDF
:1002400089EC8EBD0DB407FEFDCF33C02A988AED30
:100250008EBD0DB407FEFDCF8BEC8EBD0DB407FE39
:10026000FDCF19C02A9888ED8EBD0DB407FEFDCFD5
:100270001EBC0DB407FEFDCF2A9A0EB401FC0EC0C1
:100280002A988AED8EBD0DB407FEFDCF8BEC8EBD96
:100290000DB407FEFDCF2A9A83E00FC02A988AED9D
:1002A0008EBD0DB407FEFDCF89EC8EBD0DB407FEEB
:1002B000FDCF2A9A82E001C081E0809396040895E0
:1002C0002A988AED8EBD0DB407FEFDCF81ED8EBD5F
:1002D0000DB407FEFDCF2A9A109296040895FC01F2
:1002E000229A2A9A259A239A2498229A80E58CBDEC
:1002F00081E08DBD21982A988AE88EBD0DB407FE55
:10030000FDCF88E18EBD0DB407FEFDCF2A9A2A9855
:100310008AE78EBD0DB407FEFDCF80E28EBD0DB421
:1003200007FEFDCF2A9A2A988AE78EBD0DB407FEF4
:10033000FDCF1EBC0DB407FEFDCF2A9A20E030E0B1
:1003400061E070E088E60DC02A988EBD0DB407FE0E
:10035000FDCF1EBC0DB407FEFDCF2A9A0EB400FCE3
:100360000AC0AB01421B530B2150304069F7452BAB
:1003700011F48FEF08952A988AED8EBD0DB407FE13
:10038000FDCF81EC8EBD0DB407FEFDCF2A9A2A98D1
:1003900082ED8EBD0DB407FEFDCF80E68EBD0DB49F
:1003A00007FEFDCF2A9A2A988AEE8EBD0DB407FE6D
:1003B000FDCF84E08EBD0DB407FEFDCF2A9A88EEF6
:1003C0002A988EBD0DB407FEFDCF1EBC0DB407FEEE
:1003D000FDCF2A9A0EB402FEF3CFCF010E94F100A6
:1003E0002A988AEC8EBD0DB407FEFDCF80E28EBD4B
:1003F0000DB407FEFDCF2A9A2A9882E88EBD0DB46F
:1004000007FEFDCF81E08EBD0DB407FEFDCF2A9A19
:1004100080E008954F925F926F927F928F929F92A9
:10042000AF92BF92CF92DF92EF92FF920F931F9302
:1004300000E812E0C8010E94250A87EF92E0B801A7
:1004400040E051E02BE031E002E111E0A7E2EA2ECA
:10045000A1E0FA2EFBE2CF2EF1E0DF2EEFE3AE2E8D
:10046000E1E0BE2E0E942C1589E293E00E94E62E68
:1004700000D000D000D08BED482E83E0582E0F2EF8
:10048000F0E06F2EF0E07F2EF0E08F2EF0E09F2E58
:10049000F02DEDB7FEB7618272828382948216825C
:1004A0001582C20165EB73E041EC53E02DEC33E0C3
:1004B00084017301640153010E94F51EEDB7FEB77C
:1004C000618272828382948216821582C201C996E9
:1004D00069EB73E045EC53E021ED33E00E94F51E3B
:1004E000EDB7FEB761827282838294821682158292
:1004F0008DE494E06DEB73E049EC53E025ED33E0DF
:100500000E94F51E8DB79EB706960FB6F8949EBF53
:100510000FBE8DBF86E894E00E94051A89E894E03A
:100520000E94051A8CE894E00E94051A8FE894E076
:100530000E94051A1F910F91FF90EF90DF90CF90CE
:10054000BF90AF909F908F907F906F905F904F90F3
:100550000895F89486E894E064E274E00E941F1A1B
:1005600089E894E064E274E00E941F1A8CE894E049
:1005700064E274E00E941F1A8FE894E064E274E081
:100580000E941F1AFFCF86E894E064E274E00E94A4
:100590001F1A89E894E064E274E00E941F1A8CE854
:1005A00094E064E274E00E941F1A8FE894E064E231
:1005B00074E00E941F1A08954F925F926F927F928B
:1005C0008F929F92AF92BF92CF92DF92EF92FF9263
:1005D0000F931F93FC0129013A016130710509F164
:1005E00062307105C9F1672B09F054C089E390E0CE
:1005F000E89F8001E99F100DF89F100D112405520E
:100600001C4FC8010E94BF1D4B015C01C8010E9424
:10061000CF1D6B017C01C801B301A20195018401CA
:1006200037C089E390E0E89F8001E99F100DF89FB3
:10063000100D112405521C4FC8010E94C71D4B010B
:100640005C01C8010E94CF1D6B017C01C801B5018E
:10065000A401930182011CC089E390E0E89F70012E
:10066000E99FF00CF89FF00C11248BED93E0E80E5D
:10067000F91EC7010E94C71D5B016C01C7010E94E2
:10068000BF1D8B019C01C701B601A5017301620169
:100690000E94D51B1F910F91FF90EF90DF90CF909C
:1006A000BF90AF909F908F907F906F905F904F9092
:1006B0000895EF92FF920F931F936091D903709169
:1006C000DA036C5D7B4F882777FD8095982F0E9419
:1006D0003F3A7B018C016091C1037091C20380910C
:1006E000C3039091C40320E030E040E05FEB0E9440
:1006F0001F3B2091C5033091C6034091C703509121
:10070000C8030E94DA3820E030E040E05FE30E9456
:100710001F3B9B01AC01C801B7010E94DA380E945F
:100720000C3A9B01AC0186E894E0B9010E941F1AC3
:100730006091D9037091DA036C5D7B4F882777FD58
:100740008095982F0E943F3A7B018C016091C103F4
:100750007091C2038091C3039091C40320E030E004
:1007600040E05FE30E941F3B2091C9033091CA0320
:100770004091CB035091CC030E94D93820E030E067
:1007800040E05FE30E941F3B9B01AC01C801B70141
:100790000E94DA380E940C3A9B01AC0189E894E08F
:1007A000B9010E941F1A6091D9037091DA036C5D40
:1007B0007B4F882777FD8095982F0E943F3A7B01D9
:1007C0008C016091C1037091C2038091C303909129
:1007D000C40320E030E040E05FEB0E941F3B20912B
:1007E000C5033091C6034091C7035091C8030E94CE
:1007F000D93820E030E040E05FE30E941F3B9B01DE
:10080000AC01C801B7010E94DA380E940C3A9B0182
:10081000AC018CE894E0B9010E941F1A6091D903E1
:100820007091DA036C5D7B4F882777FD8095982F58
:100830000E943F3A7B018C016091C1037091C20319
:100840008091C3039091C40320E030E040E05FE377
:100850000E941F3B2091C9033091CA034091CB03F2
:100860005091CC030E94DA3820E030E040E05FE3B2
:100870000E941F3B9B01AC01C801B7010E94DA38FE
:100880000E940C3A9B01AC018FE894E0B9010E94F0
:100890001F1A0E946E372091920430919304409168
:1008A000940450919504621B730B840B950B695E45
:1008B00073408040904008F48AC00E946E37609375
:1008C000920470939304809394049093950485E824
:1008D00095E069E471E00E94DF3440911D0350917E
:1008E0001E0360911F037091200385E895E022E0CC
:1008F00030E00E94C63585E895E06FE471E00E9423
:10090000DF344091210350912203609123037091C1
:10091000240385E895E022E030E00E94C63585E8B2
:1009200095E068E571E00E94DF3440912503509125
:100930002603609127037091280385E895E022E063
:1009400030E00E94C63585E895E060E671E00E94DF
:10095000DF3486E894E00E945B1ABC0185E895E0EC
:100960004AE050E00E94AD3485E895E06AE671E027
:100970000E94DF3489E894E00E945B1ABC0185E89C
:1009800095E04AE050E00E94AD3485E895E064E7E8
:1009900071E00E94DF348CE894E00E945B1ABC0195
:1009A00085E895E04AE050E00E94AD3485E895E0A6
:1009B0006EE771E00E94DF348FE894E00E945B1ADA
:1009C000BC0185E895E04AE050E00E94C0341F91E8
:1009D0000F91FF90EF900895EF92FF920F931F9366
:1009E000DF93CF93CDB7DEB728970FB6F894DEBF6D
:1009F0000FBECDBF80E892E00E94D71380910C0318
:100A000090911603882309F482C0992349F481E068
:100A10008093160385E895E068E871E00E94DF3472
:100A200086E090E09A83898387EF92E0BE016F5F52
:100A30007F4F47E153E00E94191689819A81892BE3
:100A400009F471C06091190370911A0380911B031E
:100A500090911C030E943D3A20E030E04AE754E4C4
:100A60000E94A4397B018C0180911703813001F130
:100A7000813020F0823009F041C028C085E895E03F
:100A800060EA71E00E94DF34C801B7010E940C3AAD
:100A9000CB0177FF02C080E090E023E08132920733
:100AA00014F080E293E09093DA038093D90326C098
:100AB0006091180380E090E070E0A80197010E9427
:100AC000DC0285E895E069E471E016C060911803E6
:100AD00081E090E070E0A80197010E94DC02609143
:100AE000180382E090E070E0A80197010E94DC0208
:100AF00085E895E06BEA71E00E94DF3485E895E0D7
:100B0000B801A70122E030E00E94C9350CC099234A
:100B100051F01092160385E895E067EB71E00E94B2
:100B2000DF340E94A90285E895E00E943F32181642
:100B3000190694F48E010D5F1F4FC80165E875E03A
:100B40000E942136C8010E943E367093DA036093FA
:100B5000D903C8010E94113789E293E06DE173E087
:100B60000E94EF2C80911D0390911E03A0911F0302
:100B7000B09120038093B5039093B603A093B7037D
:100B8000B093B8038091210390912203A091230395
:100B9000B09124038093B9039093BA03A093BB034D
:100BA000B093BC038091250390912603A091270365
:100BB000B09128038093BD039093BE03A093BF031D
:100BC000B093C0038BED93E00E94D71D84E194E0C5
:100BD0000E94D71D8DE494E00E94D71D0E94590306
:100BE00028960FB6F894DEBF0FBECDBFCF91DF9130
:100BF0001F910F91FF90EF9008950F931F9385E839
:100C000095E040E052EC61E070E026E00E94DB31CC
:100C10008BE495E00E94170A65E070E080E090E0C8
:100C20000E94DD3789E293E061E00E94E02E85E8D2
:100C300095E064ED71E00E94DC3580E090E0A0E09A
:100C4000B0E08093CD039093CE03A093CF03B093F5
:100C5000D0038093D1039093D203A093D303B09396
:100C6000D4038093D5039093D603A093D703B09376
:100C7000D8031092DA031092D9038BED93E040E091
:100C800050E068E472EC00E010E028E432E40E94F6
:100C9000EF1C84E194E040E050E068EC72EC00E08E
:100CA00010E028EC32E40E94EF1C8DE494E040E078
:100CB00050E068EC72EC00E010E028EC32E40E94B6
:100CC000EF1C8BED93E063E070E00E94A11C84E1D7
:100CD00094E063E070E00E94A11C8DE494E063E086
:100CE00070E00E94A11C8BED93E061E070E00E9437
:100CF0006B1D84E194E061E070E00E946B1D8DE467
:100D000094E061E070E00E946B1D85E895E067EE7D
:100D100071E00E94DC3586E894E062E070E00E94B9
:100D2000F91A89E894E063E070E00E94F91A8CE80F
:100D300094E065E070E00E94F91A8FE894E066E0C4
:100D400070E00E94F91A0E94C30280E892E00E94BB
:100D50006F018F3F39F485E895E067EF71E00E94FD
:100D6000DF34FFCF1092160360ED77E080E090E073
:100D70000E94DD3785E895E04AE050E060E070E0F1
:100D80000E94EF3585E895E06EE072E00E94DC3568
:100D90000E946E376093920470939304809394043E
:100DA000909395041F910F910895382F413210F0C0
:100DB00040E042C0809197048823E1F791E090934E
:100DC0009704209399048FEF809304051092BF0439
:100DD00041504093C0044F5F9093980480919804D1
:100DE000330F832B8093980480919A04813041F4CF
:100DF00010929A04809198048093BB0085EC01C006
:100E000085EE8093BC00809197048130E1F380915E
:100E1000BF04841710F44091BF0420E030E00AC002
:100E2000FB01E20FF31FD901A156BB4F8C918083C8
:100E30002F5F3F4F2417A0F3842F08950F931F9324
:100E4000582F122F413210F081E04AC08091970450
:100E50008823E1F782E080939704009399048FEF51
:100E6000809304051092BF044093C004AFE9B4E03E
:100E7000FB0102C081918D938E2F861B8417D0F3C6
:100E80001092980480919804550F852B80939804B4
:100E900080919A04813041F410929A0480919804D0
:100EA0008093BB0085EC01C085EE8093BC001123CC
:100EB00021F0809197048230E1F3809104058F3F07
:100EC00011F480E00DC080910405803211F482E0BD
:100ED00007C080910405803311F084E001C083E0F5
:100EE0001F910F910895482F613210F081E008950D
:100EF00080919704843011F082E008956093E204B9
:100F0000A1ECB4E0842F9C01F90102C081918D9382
:100F10008E2F841B8617D0F380E008951F920F92C6
:100F20000FB60F9211242F933F934F935F936F93BC
:100F30007F938F939F93AF93BF93EF93FF93809192
:100F4000B90090E0887F90708036910509F4F2C076
:100F500081369105CCF58832910509F47BC0893240
:100F60009105B4F48031910509F46FC08131910588
:100F70003CF4009709F447C1089709F04FC165C0D8
:100F80008831910509F466C0809709F047C182C095
:100F90008034910509F4A4C08134910544F4803370
:100FA000910509F482C0C89709F038C189C080351D
:100FB000910509F489C08835910509F496C08834F3
:100FC000910509F02BC1AEC08839910509F413C110
:100FD00089399105ECF48837910509F4ABC089375C
:100FE00091054CF48836910509F4A4C08037910529
:100FF00009F014C19FC08838910509F4FCC08039FC
:10100000910509F49DC08038910509F007C198C089
:10101000803B910509F4C6C0813B91054CF4803AB0
:10102000910509F49FC0883A910509F0F7C0BAC04C
:10103000803C910509F4E3C0883C910509F4DFC0C8
:10104000883B910509F0EAC0C2C080919804809362
:10105000BB00CFC09091BF048091C004981768F482
:101060009091BF04E92FF0E0E156FB4F808180931F
:10107000BB009F5F9093BF04BCC0809199048823FC
:1010800009F44BC085ED8093BC008091BC0084FDC9
:10109000FCCFC2C080E28093040585ED8093BC0044
:1010A0008091BC0084FDFCCFB7C080E38093040531
:1010B00085ED8093BC008091BC0084FDFCCFACC06A
:1010C00088E3809304059BC08091BF049091BB008E
:1010D000E82FF0E0E156FB4F90838F5F8093BF04D1
:1010E0009091BF048091C00482C08091BF04909110
:1010F000BB00E82FF0E0E156FB4F90838F5F8093B9
:10110000BF0480919904882341F085ED8093BC0051
:101110008091BC0084FDFCCF7FC081E080939A0465
:1011200084EA6EC085ED8093BC008091BC0084FD94
:10113000FCCF72C083E0809397041092030559C0DE
:1011400080910305803208F056C08091030590918C
:10115000BB00E82FF0E0ED51FB4F90838F5F809351
:10116000030547C080910305803230F4E091030508
:10117000F0E0ED51FB4F108285ED8093BC00809133
:10118000BC0084FDFCCF1092970460910305E091B0
:101190009D04F0919E0483EE94E070E00995109216
:1011A00003052DC084E0809397041092E10410920F
:1011B000E204E0919B04F0919C0409958091E20483
:1011C000882329F481E08093E2041092C104909175
:1011D000E104E92FF0E0EF53FB4F80818093BB00E7
:1011E0009F5F9093E1049091E1048091E20498174D
:1011F00010F485EC01C085E88093BC000FC085EC3D
:101200008093BC0009C01092040585ED8093BC005A
:101210008091BC0084FDFCCF10929704FF91EF9168
:10122000BF91AF919F918F917F916F915F914F91FE
:101230003F912F910F900FBE0F901F901895109215
:10124000970481E08093990410929A0482E161E00E
:101250000E94843883E161E00E948438E9EBF0E089
:1012600080818E7F808380818D7F808388E48093DE
:10127000B80085E48093BC00089581E080934A051E
:101280006093270510924805109249050895209112
:10129000260530E080912505281B3109C9010895F4
:1012A0004091250580912605481718F02FEF3FEF54
:1012B0000AC0E42FF0E0EB5FFA4F8081282F30E086
:1012C0004F5F40932505C9010895E0912505809160
:1012D0002605E81718F0EFEFFFEF06C0F0E0EB5F30
:1012E000FA4F8081E82FF0E0CF0108950895109221
:1012F0004E0510924D0588EE93E0A0E0B0E080939B
:101300004F0590935005A0935105B093520586E385
:1013100092E090934C0580934B050895CF92DF9215
:10132000EF92FF920F931F93CF93DF937C016B019A
:101330008A0180914A058823A1F0C0E0D0E00DC069
:10134000D701ED91FC91D601AC0FBD1F0190F0814A
:10135000E02DC7016C9109952196C017D10780F344
:1013600004C0CB01642F0E947307C801DF91CF91A5
:101370001F910F91FF90EF90DF90CF900895DF9332
:10138000CF930F92CDB7DEB7FC01698380914A05F8
:101390008823C9F080914905803238F081E090E0DF
:1013A0009383828320E030E015C080914805E82FC8
:1013B000F0E0E85DFA4F998190838F5F8093480554
:1013C0008093490505C0CE01019661E00E94730734
:1013D00021E030E0C9010F90CF91DF9108950F9384
:1013E000062F8091270568E275E04091490521E0CC
:1013F0000E941E07109248051092490510924A0556
:101400000F91089561E00E94EF090895413208F0BC
:1014100040E2862F65E075E00E94D5061092250512
:1014200080932605089521E00E94060A08951092EF
:1014300025051092260510924805109249050E9434
:101440001F090895089580E00895FC0186E492E064
:1014500091838083158281E0818712869F012E5FB0
:101460003F4F108637832683128288E083838CE384
:101470008483DF0181E091E01D961C921D971E96EA
:101480009C931E971F961C921F971C963C932E931D
:101490001B978F5F1596803179F7158281E18093D4
:1014A0005705EA58FF4F10820895DC01662319F4AE
:1014B000FC01369611C0FC0121E08585861729F0D4
:1014C0002F5F35962031C9F717C085E0289FF001BE
:1014D00011243696EA0FFB1F309771F0A081B1817D
:1014E000109761F0238190E005C08C91841731F052
:1014F00013969F5F9217C8F3A0E0B0E0CD01089566
:10150000DC012115310511F488ED0895662319F4E5
:10151000FC01369611C0FC0151E08585861729F043
:101520005F5F35965031C9F70FC085E0589FF001D5
:1015300011243696EA0FFB1F309731F06283318316
:101540002083438380E0089586ED0895AF92BF9293
:10155000DF92EF92FF920F931F93CF93DF937C0163
:10156000D62E5901662319F4EC01269611C0FC0110
:1015700091E085858D1529F09F5F35969031C9F7EB
:1015800067C085E0989FE00111242696CE0DDF1DEF
:10159000209709F45DC088819981892B11F487ED2A
:1015A00058C0C7016D2D0E94550AFC01D5018D93CD
:1015B0009C93009711F48BED4CC0228126952695C3
:1015C000822F90E040971CF080E090E80BC081E013
:1015D00090E0A0E0B0E004C0880F991FAA1FBB1FD5
:1015E0002A95D2F70197F801918380832A9882EE99
:1015F0008EBD0DB407FEFDCFDEBC0DB407FEFDCFE2
:101600002A9A2A9888ED8EBD0DB407FEFDCF1EBC28
:101610000DB407FEFDCF2A9A2EB58C81882349F0A0
:1016200086E790E0E80EF91ED7019C91922B92601C
:1016300002C0922F997F2A988AED8EBD0DB407FEC5
:10164000FDCF9EBD0DB407FEFDCF2A9A80E001C0FC
:1016500086EDDF91CF911F910F91FF90EF90DF907A
:10166000BF90AF900895AC01662321F49C012A5FDE
:101670003F4F14C0FC0121E08585861739F02F5FAC
:1016800035962031C9F720E030E008C085E0289F7A
:10169000900111242A5F3F4F240F351FC90108957F
:1016A000DC0167FD69C0283008F066C0442319F4E6
:1016B000FD0191E006C015968C9115978730C1F712
:1016C0005BC08585882329F09F5F35969031C9F7E7
:1016D00053C0662379F5292F30E0442399F0F901AE
:1016E000EE0FFF1FEE0FFF1FE20FF31FEA0FFB1FAE
:1016F00081E4808715968C9115978F5F15968C9352
:1017000015970BC0F901EE0FFF1FEE0FFF1FE20F41
:10171000F31FEA0FFB1F81E08087892F90E0FC0117
:10172000EE0FFF1FEE0FFF1FE80FF91FEA0FFB1F61
:10173000808508956770660F660F660F442361F019
:1017400015968C9115978F5F15968C9315978770CA
:10175000262F2064282B02C02770262B892F90E08B
:10176000FC01EE0FFF1FEE0FFF1FE80FF91FEA0F3E
:10177000FB1F2087822F089580E00895DF92EF926B
:10178000FF920F931F93CF93DF93EC01662309F42D
:101790004BC0E62EFF24F701EE0FFF1FEE0FFF1FD9
:1017A000EE0DFF1DE80FF91F008506FF27C011E0B1
:1017B000B7E0DB2ED022812F81508F30A8F011E0CE
:1017C00013C0812F90E0FC01EE0FFF1FEE0FFF1FF3
:1017D000E80FF91FEC0FFD1F80858695869586958D
:1017E00087708D1521F01F5F103158F318C0CE019E
:1017F000612F0E94BE0BDFCF81508D83F701EE0F6A
:10180000FF1FEE0FFF1FEE0DFF1DEC0FFD1F1086DB
:1018100081E0818712862296D783C68305C08D8199
:101820000770801759F7E8CFDF91CF911F910F9183
:10183000FF90EF90DF900895DC01962F613491F4D2
:101840009D012E5F3F4FFD0181E091E01586968757
:101850001786348723878F5F35968031B9F71596C1
:101860001C920895FD0161E08585891729F06F5F5D
:1018700035966031C9F760E0CD010E94BE0B089536
:101880007F928F929F92AF92BF92CF92DF92EF9210
:10189000FF920F931F93CF93DF936C01E42EA22E40
:1018A000902EBB24C62FD0E0AB96CC0FDD1FC80F07
:1018B000D91F042F10E0055D1F4F000F111F0C0DE5
:1018C0001D1D8AEE782E88248394E881F981A081F9
:1018D000B18112960D90BC91A02DCF016E2D4A2D95
:1018E000292DFD010995F82E80EEF81609F5EE2058
:1018F00089F42A987EBC0DB407FEFDCF8EBC0DB4D2
:1019000007FEFDCF2A9A66E670E080E090E00E9434
:10191000DD3719C0D801ED91FC91A081B1811A96F3
:101920002D913C911B97CF016A2DF90109950BC0B0
:10193000BDE0FB1629F482E08B1508F449C017C0FE
:10194000FF2009F045C0E881F981A081B1810D90A7
:10195000BC91A02DCF016E2D4A2D292DFD01099599
:10196000F82EADE08A1759F4B2E0BB1550F064E6EA
:1019700070E080E090E00E94DD37B394A6CF88232A
:1019800039F1EE2099F42A988AEE8EBD0DB407FE47
:10199000FDCF81E08EBD0DB407FEFDCF2A9A66E62D
:1019A00070E080E090E00E94DD3712C0EE2DF0E0A4
:1019B000BB96EE0FFF1FEC0DFD1DA081B181ED91D7
:1019C000FC9111970284F385E02DCD016A2D0995D4
:1019D0008F2DDF91CF911F910F91FF90EF90DF90AE
:1019E000CF90BF90AF909F908F907F9008954F922F
:1019F0005F926F927F928F929F92AF92BF92CF929F
:101A0000DF92EF92FF920F931F93CF93DF93162FE6
:101A1000A42E49010E946E376B017C0180E197E2A0
:101A2000A0E0B0E0C80ED91EEA1EFB1E00E0BB24F9
:101A3000C0E0D0E062EF462EA12A58EC552E4AECC9
:101A4000642E30E8732E18EF47C02A984EBC0DB4B0
:101A500007FEFDCFAEBC0DB407FEFDCF2A9A18C01D
:101A60002A985EBC0DB407FEFDCF1EBC0DB407FE68
:101A7000FDCF2A9A0EB407FE0BC02A986EBC0DB497
:101A800007FEFDCF7EBC0DB407FEFDCF2A9A07C02E
:101A90000E946E376C157D058E059F0508F32A9808
:101AA0001EBD0DB407FEFDCF1EBC0DB407FEFDCF5D
:101AB0002A9A0EB50F70043019F00E30A9F408C040
:101AC00021968114910441F0C815D90529F40CC060
:101AD000B39493E0B91641F00E946E376C157D0502
:101AE0008E059F0508F4B1CF802FDF91CF911F9114
:101AF0000F91FF90EF90DF90CF90BF90AF909F90AD
:101B00008F907F906F905F904F9008952F923F92AB
:101B10004F925F926F927F928F929F92AF92BF92FD
:101B2000CF92DF92EF92FF920F931F93CF93DF93A9
:101B30004C01EB015A0179016801F9010081118121
:101B40006980118210828A8181FD02C090E101C00A
:101B500090E22A988AEE8EBD0DB407FEFDCF9EBDA1
:101B60000DB407FEFDCF2A9AB1E04B2E512CAAEC02
:101B70002A2EF4E03F2E702EC40160E048819501CA
:101B80000E94F70C582F863061F52A98F8EFFEBDB9
:101B90000DB407FEFDCF1EBC0DB407FEFDCF2A9A83
:101BA0008EB590E0E5E096958795EA95E1F7842576
:101BB00095258170382F330F2A812D7F232B2A837F
:101BC000882311F480E101C080E22A982AEE2EBD1C
:101BD0000DB407FEFDCF8EBD0DB407FEFDCF2A9AD2
:101BE000CBCF882309F077C02A9868EC6EBD0DB47E
:101BF00007FEFDCF1EBC0DB407FEFDCF2A9A0EB422
:101C000002FC02C050EF67C02A9870E37EBD0DB49D
:101C100007FEFDCF1EBC0DB407FEFDCF2A9A4EB5C0
:101C2000842F90E00817190708F4472DF7018081E9
:101C300091812A98F8E0FEBD0DB407FEFDCF242F58
:101C400030E0B801681B790BCB0177FF02C080E060
:101C500090E0821793070CF49C01922FF60107C0C5
:101C60001EBC0DB407FEFDCF91508EB58193992314
:101C7000B9F7C20ED11C2A9A2A982EBC0DB407FEC1
:101C8000FDCF3EBC0DB407FEFDCF2A9AF70180813F
:101C90009181840F911D91838083461520F08017D8
:101CA000910708F469CF2A9888EF8EBD0DB407FE1E
:101CB000FDCF1EBC0DB407FEFDCF2A9A8EB590E075
:101CC00074E0969587957A95E1F78170880F2A815F
:101CD0002D7F282B2A83852FDF91CF911F910F9184
:101CE000FF90EF90DF90CF90BF90AF909F908F903C
:101CF0007F906F905F904F903F902F900895AF929C
:101D0000BF92CF92DF92EF92FF920F931F93DF93D8
:101D1000CF9300D000D0CDB7DEB77C016901580168
:101D20001A8219821C821B829E012F5F3F4F8E01F7
:101D30000D5F1F4F0E94A60A882349F469817A81AA
:101D40004B815C81C701960185010E94860D0F9031
:101D50000F900F900F90CF91DF911F910F91FF90F7
:101D6000EF90DF90CF90BF90AF9008952F923F9269
:101D70004F925F926F927F928F929F92AF92BF929B
:101D8000CF92DF92EF92FF920F931F93DF93CF9347
:101D900000D000D00F92CDB7DEB77D836C835B831C
:101DA0004A83E22E932EDB011196FC908F2D8150F9
:101DB000803410F01AED51C10E946E375B016C0146
:101DC00080E197E2A0E0B0E0A80EB91ECA1EDB1EBB
:101DD000AC81BD8112968C9180FD02C090E401C05F
:101DE00090E82A988AEE8EBD0DB407FEFDCF9EBD09
:101DF0000DB407FEFDCF2A9A28012E2D392DC901D9
:101E00003C0110E02F2C332408C143012614370471
:101E100008F4410189822A98B2E1BEBDF201982DF1
:101E200006C00DB407FEFDCF81918EBD9150992360
:101E3000C1F70DB407FEFDCF2A9A2A98EAE3EEBD5A
:101E40000DB407FEFDCFF981FEBD0DB407FEFDCF39
:101E50002A9AAC81BD818C912A98B2EFBEBD0DB497
:101E600007FEFDCF80628EBD0DB407FEFDCF2A9A1E
:101E70002A98E8ECEEBD0DB407FEFDCF1EBC0DB4F4
:101E800007FEFDCF2A9A0EB407FEF2CF2A98FAEC8D
:101E9000FEBD0DB407FEFDCF20E82EBD0DB407FE3C
:101EA000FDCF2A9A2A9838EF3EBD0DB407FEFDCF2C
:101EB0001EBC0DB407FEFDCF2A9A1EB51F7000E0B0
:101EC000EE24FF2496C00894E11CF11C8A819B81BA
:101ED0000097A9F1E816F90691F5A3C00F5F03304A
:101EE00071F59FC02A9898EF9EBD0DB407FEFDCFF7
:101EF0001EBC0DB407FEFDCF2A9A8EB590E025E0FA
:101F0000969587952A95E1F7A1E0B0E08A279B276F
:101F10008170EC81FD8122812E7F282B22838823F2
:101F200011F480E401C080E82A98FAEEFEBD0DB4F9
:101F300007FEFDCF8EBD0DB407FEFDCF2A9A2A986D
:101F40002AE32EBD0DB407FEFDCF1EBC0DB407FE67
:101F5000FDCF2A9AD2018C912A98B2E1BEBD0DB470
:101F600007FEFDCF8EBD0DB407FEFDCF2A9A2A983D
:101F7000EAE3EEBD0DB407FEFDCFF981FEBD0DB461
:101F800007FEFDCF2A9AAC81BD818C912A98B2EFD1
:101F9000BEBD0DB407FEFDCF80628EBD0DB407FE41
:101FA000FDCF2A9A2A98E8ECEEBD0DB407FEFDCFCE
:101FB0001EBC0DB407FEFDCF2A9A0EB407FEF2CF69
:101FC0002A98FAECFEBD0DB407FEFDCF20E82EBD29
:101FD0000DB407FEFDCF2A9A2A9838EF3EBD0DB406
:101FE00007FEFDCF1EBC0DB407FEFDCF2A9A1EB51D
:101FF0001F70112309F44AC00E946E376A157B05D1
:102000008C059D0508F042C0163009F46BCF1E30D8
:1020100009F464CF143029F456CF6114710409F027
:10202000F4CE2A9888EF8EBD0DB407FEFDCF1EBCFE
:102030000DB407FEFDCF2A9A8EB590E005E0969587
:1020400087950A95E1F78170AC81BD8112962C913C
:1020500012972E7F282B12962C93812F0F900F9082
:102060000F900F900F90CF91DF911F910F91FF90E4
:10207000EF90DF90CF90BF90AF909F908F907F9028
:102080006F905F904F903F902F9008956818790857
:10209000480C591CC2CF2F923F924F925F926F9281
:1020A0007F928F929F92AF92BF92CF92DF92EF92E8
:1020B000FF920F931F93DF93CF93CDB7DEB7619756
:1020C0000FB6F894DEBF0FBECDBF3C01498BD22EB8
:1020D000F02E48A459A42AA43BA41A8219821C8277
:1020E0001B829E012F5F3F4F8E010D5F1F4F0E948D
:1020F000A60A182F882309F0B1C0D986FA86EB8684
:10210000CC86BE86AD86988A8F862A9882E28EBD5E
:10211000FE0139969E01205F3F4F0DB407FEFDCFB3
:1021200080818EBDE217F30711F03196F6CF0DB422
:1021300007FEFDCF2A9A2B813C81C30160E14989CA
:102140000E94F70C182F882309F088C0EE24D7FED0
:1021500002C0EE24E3944114510409F473C0E981F0
:10216000FA81EE2009F45FC082818260828354018B
:1021700058EFF52E41E0C42ED12C50C02EA13FA126
:102180003E832D8369817A814B815C81C3019E01ED
:102190002B5F3F4F82010E94860D182F8630E1F49D
:1021A000E981FA812A98FEBC0DB407FEFDCF1EBC62
:1021B0000DB407FEFDCF2A9A8EB590E035E09695D6
:1021C00087953A95E1F78C259D258170880F2281AE
:1021D0002D7F282B228322C0882309F03FC02114A1
:1021E000310499F0D101ED91FC910190F081E02D45
:1021F0006D817E81C4018A199B0998878F83C101F3
:10220000A2019E01295F3F4F09958D819E812EA1DC
:102210003FA182179307B0F0A81AB90AA114B1041C
:1022200009F0ACCF0DC08281816082834B815C81DB
:10223000C301BF012EA13FA182010E94B60E182F3B
:10224000112361F4EE2011F460E801C060EA2B81F3
:102250003C81C30149890E94F70C182F812F619698
:102260000FB6F894DEBF0FBECDBFCF91DF911F91A7
:102270000F91FF90EF90DF90CF90BF90AF909F9025
:102280008F907F906F905F904F903F902F90089528
:102290008F929F92AF92BF92CF92EF920F93E22EC6
:1022A00000D000D000D0EDB7FEB73196ADB7BEB7C5
:1022B00012961C921E92119713821282158214821A
:1022C00020E009E0CC24AA24BB24882499240E947D
:1022D0004B102DB73EB72A5F3F4F0FB6F8943EBF65
:1022E0000FBE2DBF0F91EF90CF90BF90AF909F90FA
:1022F0008F9008958F929F92AF92BF92CF92EF925C
:102300000F931F93E22E00D000D000D0EDB7FEB7A0
:102310003196ADB7BEB712961C921E9211971382DA
:1023200012821582148220E005E0CC24AA24BB246A
:10233000882499240E944B10182F8DB79EB70696BB
:102340000FB6F8949EBF0FBE8DBF6CE271E080E0C7
:1023500090E00E94DD37812F1F910F91EF90CF9079
:10236000BF90AF909F908F900895EF92FF920F9340
:102370001F93CF93DF93EC01342F122F0696F1F1C8
:102380008E819F81892B11F417ED39C02A87FC2E8D
:10239000ED2ECE0140E0232F0E94500B082F882302
:1023A00011F414ED2CC0FE0191E08585801729F011
:1023B0009F5F35969031C9F721C0892F90E0FC01CD
:1023C000EE0FFF1FEE0FFF1FE80FF91FCF0106965C
:1023D0008C0F9D1F892B91F0EC0FFD1F1287CE01F2
:1023E00060E040E0202F0E947A11182F882339F0F6
:1023F0008F2D9E2D602F0E941C0C01C016ED812F89
:10240000DF91CF911F910F91FF90EF9008958F92E0
:102410009F92AF92BF92CF92EF92FF920F9349019A
:10242000302F00D000D000D0EDB7FEB73196ADB759
:10243000BEB712969C928E921197F382E282158219
:10244000148220E806E0E32EE2E0CE2EAA24BB248C
:102450000E944B102DB73EB72A5F3F4F0FB6F8943E
:102460003EBF0FBE2DBF0F91FF90EF90CF90BF905A
:10247000AF909F908F9008953F924F925F926F928E
:102480007F928F929F92AF92BF92CF92DF92EF9204
:10249000FF920F931F93DF93CF93CDB7DEB7C05456
:1024A000D0400FB6F894DEBF0FBECDBF5C01562EF4
:1024B000442E322E380129E030E0032D6E010894BD
:1024C000C11CD11C76010E940712882349F500D057
:1024D00000D000D0EDB7FEB731968B809C8080E4B1
:1024E00090E0ADB7BEB712969C938E931197D382AE
:1024F000C28275826482C501652D442D20E806E004
:10250000E32CF2E0CF2EAA24BB240E944B102DB75F
:102510003EB72A5F3F4F0FB6F8943EBF0FBE2DBFA8
:10252000C05CDF4F0FB6F894DEBF0FBECDBFCF91BA
:10253000DF911F910F91FF90EF90DF90CF90BF90B0
:10254000AF909F908F907F906F905F904F903F9053
:1025500008958F929F92AF92BF92CF92EF920F9376
:102560001F93490100D000D000D0EDB7FEB73196DF
:10257000ADB7BEB712963C932E9311971383028387
:102580001582148220E806E0EE24CC24C394AA2409
:10259000BB240E944B102DB73EB72A5F3F4F0FB6AA
:1025A000F8943EBF0FBE2DBF1F910F91EF90CF90BB
:1025B000BF90AF909F908F9008952F923F924F922F
:1025C0005F926F927F928F929F92AF92BF92CF92C3
:1025D000DF92EF92FF920F931F93DF93CF93CDB7CC
:1025E000DEB765970FB6F894DEBF0FBECDBF4C01C6
:1025F000662E342E722E198288E08A838CE38B83B8
:10260000D401ED91FC910190F081E02DC40160E0D6
:1026100009956C01009711F486EDA6C0FC01E080DD
:10262000F180CE010196918380837482B4E0AB2E59
:10263000B12CAC0EBD1EC40160E040E022E130E0F0
:1026400085010E94A912D601ED92FC92882309F01F
:102650008BC0F50140845184E284F3842480A6E594
:10266000AA2EB12CA80CB91C650110E0F601A081BE
:10267000B181109799F1ED91FC9111970084F1854A
:10268000E02DCD010995882349F5D601ED91FC9106
:10269000A081B1811C962D913C911D97CF01B20173
:1026A000A701F9010995882379F4D601ED91FC91F0
:1026B000A081B1811E962D913C911F97CF01622D73
:1026C000F9010995882351F0C401612F462D232D6E
:1026D000072D0E94400C813D09F046C01F5FE2E0DB
:1026E000F0E0CE0EDF1E103109F610E0F501A081FA
:1026F000B181109761F1ED91FC9111970084F18502
:10270000E02DCD010995882311F5D501ED91FC91BE
:10271000A081B1811C962D913C911D97CF01B201F2
:10272000A701F9010995882391F4D501ED91FC9158
:10273000A081B1811E962D913C911F97CF01622DF2
:10274000F9010995882319F428C0893D69F41F5FB0
:10275000E2E0F0E0AE0EBF1E103141F6C401662D7E
:10276000432D272D0E94B51165960FB6F894DEBF54
:102770000FBECDBFCF91DF911F910F91FF90EF90D2
:10278000DF90CF90BF90AF909F908F907F906F9091
:102790005F904F903F902F900895C401612F462D78
:1027A000232D072D0E94400C813D79F6D0CFBF929A
:1027B000CF92DF92EF92FF920F931F93CF93DF930D
:1027C0006C0119991FC02A9888EC8EBD0DB407FEC4
:1027D000FDCF1EBC0DB407FEFDCF2A9A0EB405FC3A
:1027E00002C090E004C0C6010E94F10090E22A9865
:1027F0008AEC8EBD0DB407FEFDCF9EBD0DB407FE65
:10280000FDCF2A9A80919604813049F0813048F0BA
:10281000823019F0833039F50DC0BB240DC083E13F
:1028200006C080915705807F8031E9F081E1809377
:10283000570519C0BB24B39480915705807F803120
:1028400099F40E946E3768537F4F8F4F9F4F60936C
:10285000590570935A0580935B0590935C0580E25F
:102860008093570501C0BB2416E5E12EF12CEC0C3A
:10287000FD1CE70110E0A881B981109741F0ED91AE
:10288000FC9111970680F781E02DCD0109951F5F1E
:102890002296103181F780915705803409F452C097
:1028A000813440F4803269F18033F1F1813109F0F3
:1028B000B4C00AC0813509F48DC0803809F49CC0C9
:1028C000803509F0AAC066C086E790E0C80ED91E20
:1028D000F601108210E0F701A081B181109741F05C
:1028E000ED91FC9111970480F581E02DCD010995C2
:1028F0001F5F82E090E0E80EF91E103161F782E17F
:102900008AC0E0905905F0905A0500915B0510913E
:102910005C050E946E37E616F7060807190708F0EF
:102920007CC080E3809357052A988AEE8EBD0DB453
:1029300007FEFDCF81E08EBD0DB407FEFDCF2A9AC4
:1029400080E469C02A9888EE8EBD0DB407FEFDCFE5
:102950001EBC0DB407FEFDCF2A9A0EB400FC5DC06C
:102960002A9888ED8EBD0DB407FEFDCF1EBC0DB4B8
:1029700007FEFDCF2A9A9EB52A988AED8EBD0DB42A
:1029800007FEFDCF98609EBD0DB407FEFDCF2A9ACD
:1029900080E541C02A9888EC8EBD0DB407FEFDCFBE
:1029A0001EBC0DB407FEFDCF2A9A0EB406FE35C03C
:1029B00081E5809357050E946E376C5E7F4F8F4F85
:1029C0009F4F6093590570935A0580935B059093D0
:1029D0005C0523C0E0905905F0905A0500915B0515
:1029E00010915C050E946E37E616F7060807190776
:1029F000A0F480E880935705C60160E040E02B2DED
:102A00000E94DD12882331F0823D39F08093580511
:102A100080EA01C080E980935705DF91CF911F9133
:102A20000F91FF90EF90DF90CF90BF90089580E0DE
:102A30000895FC0182890895FC0185890895615DEE
:102A4000784111F080E0089580E040505D424230CE
:102A5000510508F481E00895AF92BF92CF92DF92C2
:102A6000EF92FF920F931F93CF93DF93DC0180E5EA
:102A700092E011969C938E93489613969C938E9316
:102A8000129715965C934E93149717963C932E933A
:102A9000169719961C930E9318971B96FC92EE921C
:102AA0001A971D96DC92CE921C971F96BC92AE92FE
:102AB0001E9751967C936E93509752961C92529704
:102AC00053961C92539781E054968C935497559645
:102AD0001C925597ED0120E030E01E8A922F2223B0
:102AE00011F080E001C088E08F8B188E992311F0DF
:102AF00091E001C09FE0F901EE0FFF1FE20FF31F0D
:102B0000EA0FFB1F990F990F808D8370892B808F9F
:102B10002F5F3F4F239623303105F9F65096CD9124
:102B2000DC9151972097C1F0FE01EA5AFF4F20E057
:102B300030E080819181892B49F4255D3F4F220F40
:102B4000331FC20FD31FB983A88306C02F5F3F4F27
:102B500032962031310569F7DF91CF911F910F91A6
:102B6000FF90EF90DF90CF90BF90AF900895DC0181
:102B7000ED91FC910190F081E02D09950895EF927F
:102B8000FF920F9302970E94C9150F91FF90EF904B
:102B90000895EF92FF92CF93DF93DC01E701549603
:102BA0008C9154978330F9F053966C9353978B81A3
:102BB00081FF19C02A81322F331F3327331F82E050
:102BC000831B90E0FC01EE0FFF1FE80FF91FEA0FD7
:102BD000FB1F2F70268B8C81878B54968C9154977A
:102BE0008F5F54968C93DF91CF91FF90EF90089573
:102BF0000F931F938C01DC015096ED91FC9151973E
:102C0000A081B18114962D913C911597CF01F801C7
:102C10006289F901099581E0D80154968C93549703
:102C200052961C92529755961C9280E01F910F91DC
:102C300008950F931F93FC019B018A01808991895C
:102C40006289418D0E947F0E1F910F910895CF924E
:102C5000DF92EF92FF920F931F93CF93DF93EC01DC
:102C60006B018A0188A1823049F1833030F48823D6
:102C700051F0813009F0C6C010C0833029F1843092
:102C800009F0C0C03DC082E08C832D813E81388731
:102C90002F838A87898781E088A3CE010796B601B2
:102CA000A8010E94CD19882309F4AEC0ED81FE81F0
:102CB000808189A381818AA382E088A3CE01429684
:102CC0009E838D8383E088A38AA1843051F0853070
:102CD00018F4823061F406C0853041F0813239F455
:102CE00003C01BA287E002C089A182508C838D8122
:102CF0009E8198878F838C818A87898784E088A3C7
:102D0000F0E1EF2EF12CEC0EFD1E8AA1843091F043
:102D1000853039F1823009F042C0CE010796B60104
:102D2000A8010E94CD19882309F46EC0F70185819E
:102D30008CA363C0CE010796B601A8010E94CD19ED
:102D4000882309F461C088A5882309F056C081E072
:102D50008BA3F70182818EA383818FA387818DA3AB
:102D60004CC0CE010796B601A8010E94CD19882358
:102D700009F44AC08BA1882309F43FC0AA81BB8112
:102D80001097D9F1ED91FC9111970190F081E02D10
:102D9000CD016CA14EA12FA10DA109952EC089A135
:102DA0002D85222319F0213021F517C090E00297DC
:102DB0009F878E8781E08D8710C0215030403F87EC
:102DC0002E87F60180819181019691838083F8019D
:102DD000808191810197918380832E853F85211584
:102DE000310531F0F80180819181892B31F701C0E3
:102DF0001D868E859F85892B39F4CE0140969E8352
:102E00008D8318A281E001C080E0DF91CF911F91F6
:102E10000F91FF90EF90DF90CF900895CF92DF92C7
:102E2000EF92FF920F931F93DF93CF9300D000D0C8
:102E3000CDB7DEB78C017A8369835C834B83A3E0D3
:102E4000CA2ED12CCC0EDD1E7E010894E11CF11C93
:102E500007C0C801B601A7010E942716882321F0E8
:102E600089819A81892BA9F70F900F900F900F906D
:102E7000CF91DF911F910F91FF90EF90DF90CF9056
:102E800008958F929F92AF92BF92CF92EF920F933D
:102E9000CF93DF939C01A62EDA010D900020E9F775
:102EA000A41BB50B00D000D000D0EDB7FEB7319613
:102EB000EC0188899989CDB7DEB7BA83A9834283AB
:102EC000538315821482F901628940E020E404E30F
:102ED000EE24CC24BB244D010E944B102DB73EB7ED
:102EE0002A5F3F4F0FB6F8943EBF0FBE2DBFDF9154
:102EF000CF910F91EF90CF90BF90AF909F908F9018
:102F000008952F923F924F925F926F927F928F928D
:102F10009F92AF92BF92CF92DF92EF92FF920F9368
:102F20001F93DF93CF93CDB7DEB7EE970FB6F8942C
:102F3000DEBF0FBECDBF3C01362E242E2EAFDC01EE
:102F40005096AD90BC90519752968C91882311F079
:102F500019ED09C2D501ED91FC910190F081E02DB0
:102F6000C50160E009954C01009709F4FBC1FC0123
:102F7000E080F180E114F10411F417EDF4C146E1B1
:102F8000442E512C460C571CDC0111965C924E923B
:102F9000EEAD1496EC9333E0C32ED12CCC0EDD1E97
:102FA000D30150968D919C91519760E040E022E1D1
:102FB00030E086010E94A912182FF401F182E0820C
:102FC000882309F0C6C1D501ED91FC910280F381FF
:102FD000E02DC501632D40E0222D0995282FF30136
:102FE000828BD60117968C91878B8089918960E0BE
:102FF00040E00E947A11182FD501ED91FC918823B1
:1030000071F0D40114961C920480F581E02DC50165
:10301000D30152966C910995F301128AA4C1D4018F
:1030200014961C920190F081E02DC501D3015296B7
:103030006C910995FC01009709F494C1BEADB4836D
:10304000F30180899189628941E092010E94800A9E
:10305000182F882309F07DC1D60118968D919C9177
:103060001997815D984109F07EC0F60182859385AC
:1030700080509D42029708F076C0E18822E0A22E9F
:10308000B12CA60CB71CFF249EE6292E92E0392E07
:1030900085E1882E912C8C0E9D1E05E2C02ED12C30
:1030A000CC0EDD1E3AC03E8A2D8AB88EAF8A1AA297
:1030B0001DAA1EAA1FAA1DAEDB8ECA8EDD8ECC8E67
:1030C000898D8F8F8E8FD9A2C8A21CA21BA261E00E
:1030D00070E080E090E00E94DD37D30150968D9142
:1030E0009C91519752966C9140E02F2D84010E9443
:1030F0003C12882361F0F30180899189628940E064
:103100002F2D0E943C12182F882309F022C1D301D1
:1031100054968C91833018F4F394FE1420F2F3014A
:103120008489833059F480899189628943E09201CE
:103130000E94800A182F882309F00BC1D3015096F2
:103140008D919C91519752966C91529740E0539675
:103150002C910E944811182F882309F0FAC081E0B1
:10316000F301858B00C18FEF9FEF9A83898361E024
:1031700070E080E090E00E94DD371E010894211C81
:10318000311C00D000D000D0EDB7FEB73196D3018E
:1031900050968D919C91519712E0412E512CADB7D4
:1031A000BEB712965C924E9211973382228215829C
:1031B0001482F301628940E020EC03E3EE24CC2486
:1031C000AA24BB24B2E08B2E912C0E944B102DB769
:1031D0003EB72A5F3F4F0FB6F8943EBF0FBE2DBFDC
:1031E000882341F100D000D000D0EDB7FEB7319672
:1031F000D30150968D919C915197ADB7BEB7129661
:103200005C924E9211973382228215821482F301CE
:10321000628940E020EC0E944B10182F2DB73EB77A
:103220002A5F3F4F0FB6F8943EBF0FBE2DBF8823D5
:1032300009F08FC064E670E080E090E00E94DD3726
:10324000D30114964D915C911597C30160E00E94E3
:1032500041176AE070E080E090E00E94DD37F30102
:1032600046815781C30161E00E9441176AE070E026
:1032700080E090E00E94DD37D30118964D915C917B
:103280001997C30162E00E9441176AE070E080E094
:1032900090E00E94DD37F30142855385C30163E06E
:1032A0000E9441176AE070E080E090E00E94DD3704
:1032B000D3011C964D915C911D97C30164E00E945F
:1032C00041176AE070E080E090E00E94DD37F30192
:1032D00046855785C30165E00E94411764E670E0AA
:1032E00080E090E00E94DD3700D000D000D0EDB744
:1032F000FEB73196D30150968D919C915197ADB701
:10330000BEB712961C921E921197138212821582DA
:103310001482F301628940E020E405E3EE24CC242A
:10332000AA24BB24882499240E944B10182F2DB75F
:103330003EB72A5F3F4F0FB6F8943EBF0FBE2DBF7A
:10334000882339F464E670E080E090E00E94DD3785
:1033500010EED301ED91FC910480F581E02DC301C5
:10336000099501C016ED812FEE960FB6F894DEBFD9
:103370000FBECDBFCF91DF911F910F91FF90EF90C6
:10338000DF90CF90BF90AF909F908F907F906F9085
:103390005F904F903F902F900895CF93DF93EC0173
:1033A0009A0188819981892BF9F42BC08B8190E057
:1033B000841B9109E881F981E80FF91FDB018D91E8
:1033C0009C91DC018C9180838A8181508A83F901F0
:1033D00080819181019791838083DB018D919C9104
:1033E000119701968D939C934A81442331F0F90102
:1033F00080819181892BD1F604C08B818A8381E001
:1034000001C080E0DF91CF910895FC0180915D05BE
:103410008C3090F480838F5F80935D05815090E0C5
:10342000FC01EE0FFF1FE80FF91FE25AFA4F88EB7D
:103430009BE09283818308958FEF80830895FC0140
:1034400020812C30B8F58181992787FD909548E837
:1034500050E0481B590B440F551F440F551F64176C
:10346000750784F08281992787FD909548E552E0A1
:10347000481B590B440F551F440F551F6417750700
:103480000CF4AB0142505040CA01AA2797FDA09509
:10349000BA2F880F991FAA1FBB1F4FB7F89430E0AF
:1034A000F901EE0FFF1FE20FF31FE25AFA4F92836A
:1034B00081834FBF0895FC0180818F3F19F420E084
:1034C00030E016C090E0FC01EE0FFF1FE80FF91F7F
:1034D000E25AFA4F2181328183E0220F331F8A950D
:1034E000E1F7B4E036952795BA95E1F72E5F3F4FA7
:1034F000C9010895CF92DF92EF92FF921F93CF936D
:10350000DF93EC01162F7A01690188818C3008F075
:1035100064C0862F61E00E944538888190E0FC01FC
:10352000EE0FFF1FE80FF91FE25AFA4F1F73808159
:10353000807C812B808380E292E08E199F0964E079
:1035400070E00E942D3C698380E699E08C199D090A
:1035500064E070E00E942D3C6A83A8818A2F6CE0B1
:103560000E940D3C682F70E0AB01440F551F460FC1
:10357000571F440F551F440F551F20E030E0C9016D
:10358000840F951FFC01EE0FFF1FE80FF91FE25A91
:10359000FA4F808186FD15C02F5F3F4F2C303105DB
:1035A00071F724C01092800082E080938100109215
:1035B000850010928400B19A80916F0082608093A0
:1035C0006F008A2F90E0FC01EE0FFF1FE80FF91F3C
:1035D000E25AFA4F8081806480838881DF91CF91A5
:1035E0001F91FF90EF90DF90CF900895672BD1F25D
:1035F000E8CF40E252E020E639E00E947A1A0895CE
:103600001F920F920FB60F9211242F933F934F9357
:103610005F936F937F938F939F93AF93BF93EF933A
:10362000FF938091820587FF05C01092850010925C
:1036300084002BC020918205332727FD309580918F
:103640005D0590E02817390704F5809182059927D8
:1036500087FD9095FC01EE0FFF1FE80FF91FE25A5E
:10366000FA4F808186FF11C080918205992787FDDE
:103670009095FC01EE0FFF1FE80FF91FE25AFA4F79
:1036800080818F7360E00E948438809182058F5F13
:103690008093820520918205332727FD3095809104
:1036A0005D0590E0281739070CF04EC08091820527
:1036B0008C300CF049C020918400309185008091BD
:1036C0008205992787FD9095FC01EE0FFF1FE80FFB
:1036D000F91FE25AFA4F81819281820F931F9093D2
:1036E00089008093880080918205992787FD9095B5
:1036F000FC01EE0FFF1FE80FF91FE25AFA4F80811D
:1037000086FF2BC080918205992787FD9095FC014B
:10371000EE0FFF1FE80FF91FE25AFA4F80818F73F7
:1037200061E00E94843819C080E49CE905C0809162
:10373000840090918500049690938900809388007E
:103740008FEF8093820509C080918400909185005D
:10375000049680549C4940F3EACFFF91EF91BF91CA
:10376000AF919F918F917F916F915F914F913F9119
:103770002F910F900FBE0F901F9018958AE061E077
:103780000E9484388AE061E00E9445388CB58061EF
:103790008CBD8CB580648CBD8DE061E00E944538A5
:1037A0008BE061E00E94453808952F923F924F923E
:1037B0005F926F927F928F929F92AF92BF92CF92C1
:1037C000DF92EF92FF920F931F93DF93CF9300D07E
:1037D00000D0CDB7DEB71C0149835A836B837C834D
:1037E0004801590126013701CB01BA0120E030E040
:1037F00040E050E00E94A03987FD8CC0C501B401B3
:1038000020E030E040E050E00E94A03987FD82C017
:10381000C701B60120E030E040E050E00E94A0394E
:1038200087FD78C089819A81AB81BC81F101808359
:103830009183A283B383D10114968D929D92AD9210
:10384000BC921797C086D186E286F38664A575A5DB
:1038500086A597A50E943D3A20E030E04AE754E46F
:103860000E94A4397B018C0189819A81AB81BC8142
:10387000F10184879587A687B787C501B401A801A0
:1038800097010E941F3B5B016C01D10150966D9323
:103890007D938D939C935397C301B201A801970127
:1038A0000E94A4397B018C01F101648B758B868B9E
:1038B000978B808D918D019769F560E070E080E0D5
:1038C00090E029813A814B815C810E94D938D101F5
:1038D0001C966D937D938D939C931F9760E070E091
:1038E00080E090E0A60195010E94D938F101608B3B
:1038F000718B828B938B60E070E080E090E0A80198
:1039000097010E94D938D10154966D937D938D9380
:103910009C9357970F900F900F900F90CF91DF913E
:103920001F910F91FF90EF90DF90CF90BF90AF90DD
:103930009F908F907F906F905F904F903F902F90CF
:103940000895AF92BF92CF92DF92EF92FF920F93C2
:103950001F93CF93DF93EC0116161706ACF55B01AE
:10396000CC24B7FCC094DC2CC601B5010E943F3AC0
:103970007B018C016CA57DA58EA59FA50E943D3A7B
:103980009B01AC01C801B7010E94A4397B018C01E5
:10399000688979898A899B89A80197010E941F3BC0
:1039A000688B798B8A8B9B8B6C897D898E899F89AB
:1039B000A80197010E94A4396C8B7D8B8E8B9F8B05
:1039C000ACA6BDA6CEA6DFA6DF91CF911F910F9129
:1039D000FF90EF90DF90CF90BF90AF9008954F92FF
:1039E0005F926F927F928F929F92AF92BF92CF928F
:1039F000DF92EF92FF920F931F93CF93DF93EC012F
:103A00003A014B0178018901CB01BA01A801970164
:103A10000E94143B87FF4EC068AA79AA8AAA9BAA73
:103A2000ECAAFDAA0EAB1FAB88AD882309F442C0F7
:103A30004C8C5D8CF201A080B180C280D380C60125
:103A4000B501A80197010E94143B181634F4F20145
:103A5000E082F182028313830DC0C601B501A40187
:103A600093010E94A03988232CF4F20160827182B4
:103A700082829382ACA0BDA0CEA0DFA0ECA8FDA85E
:103A80000EA91FA9C601B501A80197010E94143B08
:103A9000181664F0E8A8F9A80AA91BA9C601B5017F
:103AA000A80197010E94A039882324F4ECA2FDA26A
:103AB0000EA31FA3DF91CF911F910F91FF90EF9065
:103AC000DF90CF90BF90AF909F908F907F906F903E
:103AD0005F904F9008959F92AF92BF92CF92DF92E6
:103AE000EF92FF920F931F93CF93DF93EC019924F2
:103AF0006130710511F49924939488AD91E0892780
:103B0000981681F5EC8DFD8DE080F18002811381A6
:103B1000ECA2FDA20EA31FA3EA8DFB8D80819181F3
:103B2000A281B38188A799A7AAA7BBA7ACA8BDA863
:103B3000CEA8DFA8C801B701A60195010E94143BD9
:103B4000181664F0A8A8B9A8CAA8DBA8C801B701CC
:103B5000A60195010E94A039882324F4ACA2BDA23D
:103B6000CEA2DFA298AEDF91CF911F910F91FF906F
:103B7000EF90DF90CF90BF90AF909F900895FC01A1
:103B80002081318142815381B901CA010895FC012C
:103B90002481358146815781B901CA010895FC010C
:103BA0002085318542855385B901CA0108952F9238
:103BB0003F924F925F926F927F928F929F92AF92BD
:103BC000BF92CF92DF92EF92FF920F931F93DF93FA
:103BD000CF9300D000D000D0CDB7DEB79E838D83C9
:103BE000DC01D8968C91882309F4E5C00E946E37D9
:103BF00069837A838B839C83ED81FE8180A191A16F
:103C0000A2A1B3A129813A814B815C81281B390B88
:103C10004A0B5B0B84A595A5A6A5B7A52817390760
:103C20004A075B0708F4C7C0028CF38DE02D2080A3
:103C3000318042805380AD81BE815E96ED91FC91D2
:103C40005F976081718182819381A20191010E94BD
:103C5000D9383B014C01ED81FE81208931894289AF
:103C600053890E941F3BAD81BE8194962D913D9159
:103C70004D915C9197970E94DA387B018C01ED8120
:103C8000FE8164A375A386A397A3A4A8B5A8C6A81C
:103C9000D7A8A60195010E94143B181674F0ED8177
:103CA000FE81A0A8B1A8C2A8D3A8C801B701A601E7
:103CB00095010E94A039882344F4AD81BE81949679
:103CC000AD92BD92CD92DC929797C401B301ED8184
:103CD000FE8124853585468557850E941F3BAD8131
:103CE000BE8194962D913D914D915C9197970E9444
:103CF000DA387B018C01C201B101ED81FE8120A582
:103D000031A542A553A50E94D938AD81BE815496F4
:103D10002D913D914D915C9157970E941F3B9B01C6
:103D2000AC01C801B7010E94D9387B018C01ED813B
:103D3000FE81D4A8C5A8B6A8A7A82D2D3C2D4B2D33
:103D40005A2D0E94143B1816BCF0AD81BE81D0964E
:103D5000DC90D097D196CC90D197D296BC90D29748
:103D6000D396AC90C801B7012D2D3C2D4B2D5A2D6B
:103D70000E94A039882334F48D2D9C2DAB2DBA2DB3
:103D80007C018D01AD81BE815C96ED91FC915D97CA
:103D9000E082F18202831383FD0120A631A642A6B0
:103DA00053A689819A81AB81BC8180A391A3A2A3F0
:103DB000B3A381E001C080E026960FB6F894DEBF81
:103DC0000FBECDBFCF91DF911F910F91FF90EF906C
:103DD000DF90CF90BF90AF909F908F907F906F902B
:103DE0005F904F903F902F9008954F925F926F9207
:103DF0007F928F929F92AF92BF92CF92DF92EF927B
:103E0000FF920F931F93DF93CF93CDB7DEB74C0193
:103E100027013801EF88F88CFC01558F448F738F90
:103E2000628F378F268F10AE40E050E060E070E088
:103E300000E010E02FE733E40E94EF1C84E690E0FE
:103E4000A0E0B0E0F40184A795A7A6A7B7A780AD2E
:103E5000882391F1808D918DE816F90669F160E073
:103E600070E080E090E024853585468557850E9486
:103E7000D938F401648775878687978760E070E09A
:103E800080E090E020893189428953890E94D938A5
:103E9000F401608B718B828B938B60E070E080E02B
:103EA00090E024893589468957890E94D938F401E0
:103EB000648B758B868B978BF401F18EE08EC40139
:103EC000B301A20196018501CB88DC88ED88FE88CC
:103ED0000E94D51B0E946E37F40124A535A546A586
:103EE00057A5621B730B840B950B60A371A382A370
:103EF00093A3CF91DF911F910F91FF90EF90DF90EF
:103F0000CF90BF90AF909F908F907F906F905F9079
:103F10004F9008950895FC016083418308952F9286
:103F20003F924F925F926F927F928F929F92AF9249
:103F3000BF92CF92DF92EF92FF920F931F93CF9396
:103F4000DF935C014B013A0129011801E7018C0163
:103F50000E5F1F4FE0902A02F0902B02FC0180813F
:103F600061814BE32EE00E94F520F501928180E013
:103F7000238130E0822B932BF40191838083F50120
:103F8000948180E0258130E0822B932BF301918393
:103F90008083F501968180E0278130E0822B932B8E
:103FA000F20191838083F501928580E0238530E0E2
:103FB000822B932BF10191838083F501948580E01E
:103FC000258530E0822B932B99838883968580E02A
:103FD000278530E0822B932BF60191838083DF913C
:103FE000CF911F910F91FF90EF90DF90CF90BF90F6
:103FF000AF909F908F907F906F905F904F903F9089
:104000002F9008950F93FC01062F808161814BE66C
:1040100026E00E940D220F9108950F93FC018081EC
:1040200061814BE627E001E00E940D220F91089587
:104030000F93FC01062F808161814AE624E00E94F3
:104040000D220F9108950F93FC01062F808161814D
:104050004AE625E00E940D220F9108950F93FC017E
:10406000062F8081618147E321E00E940D220F919C
:104070000895EF920F93FC01E62E808161814BE65B
:1040800022E003E00E94AD210F91EF900895EF929E
:104090000F93FC01E62E808161814CE124E002E077
:1040A0000E94AD210F91EF900895EF920F93FC01C4
:1040B000E62E808161814BE124E002E00E94AD2187
:1040C0000F91EF900895CF93DF93EC0188818823BF
:1040D000E9F00E94BE1B898161E00E944538898118
:1040E00061E00E948438CE010E940D2064E670E0F9
:1040F00080E090E00E94DD37CE0161E00E94182050
:1041000061E070E080E090E00E94DD37CE0161E088
:104110000E943920CE0160E00E945520CE0160E06F
:104120000E944720CE0160E00E940220DF91CF91E3
:104130000895DF92EF92FF920F931F93CF93DF9337
:10414000F62EE42ED22E8823C9F48BE495E00E944B
:104150003D098BE495E06E2D0E94BF09E80110E057
:1041600006C08BE495E069910E94BF091F5F1D1591
:10417000C0F38BE495E00E94020A1AC0862F60E02B
:104180000E948438EEBC0DB407FEFDCF8EB5F80159
:1041900090E008C080818EBD0DB407FEFDCF8EB5C6
:1041A0009F5F31969D15B0F38F2D61E00E9484389A
:1041B00081E0DF91CF911F910F91FF90EF90DF9001
:1041C00008950F931F93DF93CF930F92CDB7DEB770
:1041D000298321E08E010F5F1F4F0E9499200F90CD
:1041E000CF91DF911F910F9108955F926F927F920F
:1041F0008F929F92AF92BF92CF92DF92EF92FF92F7
:104200000F931F93CF93DF93962ED42E522EC02E52
:104210005701882309F05EC08BE495E00E943D09B8
:104220008BE495E06D2D0E94BF098BE495E00E9420
:10423000020A8BE495E0692D0E943D098BE495E02C
:10424000692D452D0E94130A0E946E373B014C01D7
:10425000802F912F9C01E90100E010E0CE018C1924
:10426000D82E8BE495E00E944709892B09F462C09F
:10427000A114B10459F00E946E37661977098809B4
:1042800099096E157F058007910730F48BE495E05E
:104290000E9450098993E2CF0E946E376619770910
:1042A00088099909950140E050E062177307840777
:1042B000950758F02D2D332727FD3095852D90E05B
:1042C0002817390714F4DD24DA948BE495E00E9472
:1042D000020A1FC0862F60E00E94843890E8D92A25
:1042E000DEBC0DB407FEFDCF8EB58C2D912F9C0149
:1042F000F90106C01EBC0DB407FEFDCF8EB581933B
:104300008E2F8C198515B0F3D52C892D61E00E9474
:1043100084388D2DDF91CF911F910F91FF90EF90F9
:10432000DF90CF90BF90AF909F908F907F906F90D5
:104330005F900895A114B10441F2AECFEF92FF92C5
:104340000F931F93F901780121E08F010E94F5205E
:104350001F910F91FF90EF900895AF92BF92CF926F
:10436000DF92EF92FF920F931F93DF93CF930F9201
:10437000CDB7DEB7C82EB62EA42EF22ED02E0091C9
:104380002A0210912B029E012F5F3F4F0E949E2117
:104390008823B9F16F2D70E02D2D30E04E2D50E0C7
:1043A00088E090E0821B930B02C0440F551F8A9552
:1043B000E2F750E087E090E0861B970B02C055952E
:1043C00047958A95E2F7261B370B295F3F4F8FEF02
:1043D00090E0FC0102C0F595E7952A95E2F79F0170
:1043E0006F5F7F4F02C0880F991F6A95E2F7282BF5
:1043F00089812823242B29838C2D6B2D4A2D0E9403
:10440000E1200F90CF91DF911F910F91FF90EF90DE
:10441000DF90CF90BF90AF900895BF92CF92DF9280
:10442000EF92FF920F931F93DF93CF930F92CDB72D
:10443000DEB7D82EC62EB42EE22EF02E00912A0220
:1044400010912B029E012F5F3F4F0E949E213981C8
:10445000FF2051F081E090E002C0880F991FEA949C
:10446000E2F7232F282B0AC081E090E002C0880FDA
:10447000991FEA94E2F7282F2095232329838D2D75
:104480006C2D4B2D0E94E1200F90CF91DF911F9159
:104490000F91FF90EF90DF90CF90BF9008956F92B3
:1044A0007F928F929F92AF92BF92CF92DF92EF92C4
:1044B000FF920F931F93DF93CF93CDB7DEB7609733
:1044C0000FB6F894DEBF0FBECDBF7B018C0180E03C
:1044D00090E0A0ECBFE38D879E87AF87B88BC801C3
:1044E000B70120E030E040E05FE30E941F3B6D83B6
:1044F0007E838F839887E986FA860B871C87898558
:104500009A85AB85BC8589839A83AB83BC832981DB
:104510003A814B815C81559547953795279586E87B
:104520009AE5A7E3BFE5821B930BA40BB50B898328
:104530009A83AB83BC8389819A81AB81BC81898753
:104540009A87AB87BC8769847A848B849C84AD848A
:10455000BE84CF84D8886D817E818F81988529859E
:104560003A854B855C85E984FA840B851C850E941D
:104570001F3BA80197010E941F3B9B01AC01C60194
:10458000B5010E94D9389B01AC01C401B3010E945E
:104590001F3B69877A878B879C8789859A85AB853E
:1045A000BC85BC01CD0160960FB6F894DEBF0FBE8E
:1045B000CDBFCF91DF911F910F91FF90EF90DF90D2
:1045C000CF90BF90AF909F908F907F906F90089505
:1045D0002F923F924F925F926F927F928F929F9213
:1045E000AF92BF92CF92DF92EF92FF920F931F9301
:1045F000DF93CF93CDB7DEB7CA58D0400FB6F8944B
:10460000DEBF0FBECDBFA3969FAF8EAFA397A79679
:104610004CAF5DAF6EAF7FAFA797AB960CAF1DAF42
:104620002EAF3FAFAB97AF96CCAEDDAEEEAEFFAEEA
:10463000AF9714012501C156DF4F688079808A80C9
:104640009B80CF59D040BC016C597F4FDB01ED906E
:10465000FD900D911C911397A196ECAEFDAE0EAF9F
:104660001FAFA197ED90FD900D911C9113976D9642
:10467000ECAEFDAE0EAF1FAF6D97ED90FD900D91BE
:104680001C916996ECAEFDAE0EAF1FAF6997DC01D1
:10469000A859BF4FED90FD900D911C911397659611
:1046A000ECAEFDAE0EAF1FAF6597FB01008111812F
:1046B0002281338161960CAF1DAF2EAF3FAF619762
:1046C00084599F4FFC01E080F180028113812D9677
:1046D000ECAEFDAE0EAF1FAF2D97FB0120813181F7
:1046E00042815381A3966EAD7FADA39760597F4FF2
:1046F000FB0120813181428153812D913D914D916A
:104700005C9113972D913D914D915C9113972D9153
:104710003D914D915C911397FC0120813181428143
:104720005381ED90FD900D911C912996ECAEFDAE5C
:104730000EAF1FAF2997DB010D911D912D913C917B
:1047400025960CAF1DAF2EAF3FAF2597208131814D
:10475000428153812081318142815381DC01ED907E
:10476000FD900D911C912196ECAEFDAE0EAF1FAFEA
:104770002197DB01ED90FD900D911C911397E9AE0F
:10478000FAAE0BAF1CAFED90FD900D911C911397FD
:10479000EDAAFEAA0FAB18AFED90FD900D911C9104
:1047A000E9AAFAAA0BAB1CABC201B10120E030E0D0
:1047B00040E050E00E94A039882309F4E8C2C40117
:1047C000B30120E030E040E050E00E94A0398823AF
:1047D00009F4DDC2CD55DF4F688179818A819B81E3
:1047E000C35AD04020E030E040E050E00E94A039C1
:1047F000882309F4CCC2C201B101A20191010E9437
:104800001F3B7B018C01C401B301A40193010E94F1
:104810001F3B9B01AC01C801B7010E94DA387B0144
:104820008C01CD55DF4F688179818A819B81C35A84
:10483000D0409B01AC010E941F3B9B01AC01C80111
:10484000B7010E94DA380E944F225B016C01C4015B
:10485000B301A60195010E941F3BE3966CAF7DAFAB
:104860008EAF9FAFE397CD55DF4F688179818A8105
:104870009B81C35AD040A60195010E941F3BE79639
:104880006CAF7DAF8EAF9FAFE79769966CAD7DAD96
:104890008EAD9FAD699765962CAD3DAD4EAD5FADCC
:1048A00065970E941F3B7B018C0121966CAD7DAD0D
:1048B0008EAD9FAD219729AD3AAD4BAD5CAD0E9459
:1048C0001F3B9B01AC01C801B7010E94DA38EB968F
:1048D0006CAF7DAF8EAF9FAFEB97A1966CAD7DAD0A
:1048E0008EAD9FADA1976D962CAD3DAD4EAD5FAD3C
:1048F0006D970E941F3B20E030E040E05FE30E94A4
:10490000D9387B018C016DA97EA98FA998AD29A901
:104910003AA94BA95CA90E941F3B9B01AC01C801AD
:10492000B7010E94DA383B014C01E3966CAD7DADD6
:104930008EAD9FADE397A40193010E941F3B7B01C5
:104940008C01E7966CAD7DAD8EAD9FADE797EB9694
:104950002CAD3DAD4EAD5FADEB970E941F3B9B0173
:10496000AC01C801B7010E94D93820E030E040E036
:1049700050E00E94DA386D8B7E8B8F8B988F20E011
:1049800030E040E050E00E94A039882309F4FFC1E4
:10499000C201B101A60195010E941F3B1B012C0120
:1049A00029966CAD7DAD8EAD9FAD299725962CAD2A
:1049B0003DAD4EAD5FAD25970E941F3B7B018C0145
:1049C00061966CAD7DAD8EAD9FAD61972D962CAD92
:1049D0003DAD4EAD5FAD2D970E941F3B9B01AC01DD
:1049E000C801B7010E94D9385B016C01E7966CAD34
:1049F0007DAD8EAD9FADE797A60195010E941F3B4F
:104A00007B018C01C201B101A40193010E941F3BF3
:104A10009B01AC01C801B7010E94D93820E030E009
:104A200040E050E00E94DA38698B7A8B8B8B9C8B4C
:104A300020E030E040E050E00E94A039882309F4F3
:104A4000A6C1C201B101EB962CAD3DAD4EAD5FAD3F
:104A5000EB970E941F3B7B018C01E3966CAD7DAD13
:104A60008EAD9FADE397A60195010E941F3B9B0170
:104A7000AC01C801B7010E94D93820E030E040E025
:104A800050E00E94DA386D877E878F87988B20E010
:104A900030E040E050E00E94A039882309F477C15B
:104AA000A3964EAC5FACA397E0E6F0E04E0E5F1E1F
:104AB000D2016D917D918D919C9120E030E040E09C
:104AC00050E00E94143BA3962EAC3FACA397E4E7C2
:104AD000F0E02E0E3F1EA3960EAD1FADA397085813
:104AE0001F4FC957DF4F19830883C758D040A3967B
:104AF0002EAD3FADA39724583F4FC757DF4F3983A3
:104B00002883C958D04018160CF0CDC0D1016D9043
:104B10007D908D909C90F201608171818281938162
:104B20002D893E894F89588D0E941F3B7B018C0146
:104B3000A396EEADFFADA397E857FF4F60E070E09E
:104B400080E89FE320813181428153810E94A43912
:104B50005B016C01C801B701A60195010E941F3BD2
:104B60009B01AC01C401B3010E94DA38D1016D93FD
:104B70007D938D939C931397C957DF4FE881F981FB
:104B8000C758D040E080F18002811381D2016D913D
:104B90007D918D919C9129893A894B895C890E94EC
:104BA0001F3BA60195010E941F3B9B01AC01C80160
:104BB000B7010E94DA38C957DF4FE881F981C75839
:104BC000D0406083718382839383C757DF4FA8816E
:104BD000B981C958D040ED90FD900D911C91F20122
:104BE00060817181828193812D853E854F855889B1
:104BF0000E941F3BA60195010E941F3B9B01AC0137
:104C0000C801B7010E94DA38C757DF4FA881B981C0
:104C1000C958D0406D937D938D939C931397F10168
:104C20002081318142815381A7966CAD7DAD8EADDF
:104C30009FADA7970E94DA38A7966CAF7DAF8EAF75
:104C40009FAFA797C957DF4FA881B981C758D040F8
:104C50002D913D914D915C91AB966CAD7DAD8EAD3E
:104C60009FADAB970E94DA38AB966CAF7DAF8EAF3D
:104C70009FAFAB97C757DF4FE881F981C958D04044
:104C80002081318142815381AF966CAD7DAD8EAD77
:104C90009FADAF970E94DA38AF966CAF7DAF8EAF05
:104CA0009FAFAF971DC080E090E0A0E0B0E0F101C1
:104CB00080839183A283B383C957DF4FE881F98151
:104CC000C758D04080839183A283B383C757DF4FF7
:104CD000E881F981C958D04080839183A283B3834E
:104CE000A3960EAD1FADA397045A1F4FD8016D9127
:104CF0007D918D919C912D893E894F89588D0E947F
:104D00001F3B9B01AC01A7966CAD7DAD8EAD9FADF9
:104D1000A7970E94DA38A7966CAF7DAF8EAF9FAF92
:104D2000A797F801608171818281938129893A89ED
:104D30004B895C890E941F3B9B01AC01AB966CAD1B
:104D40007DAD8EAD9FADAB970E94DA38AB966CAF60
:104D50007DAF8EAF9FAFAB97D8016D917D918D9157
:104D60009C912D853E854F8558890E941F3B9B0154
:104D7000AC01AF966CAD7DAD8EAD9FADAF970E948F
:104D8000DA38AF966CAF7DAF8EAF9FAFAF97A3967B
:104D9000EEADFFADA397E857FF4F60E070E080E80D
:104DA0009FE320813181428153810E94A43920E018
:104DB00030E040E05FE30E941F3B7B018C01A7963F
:104DC0006CAD7DAD8EAD9FADA797A80197010E94F8
:104DD0001F3BEF966CAF7DAF8EAF9FAFEF97AB965B
:104DE0006CAD7DAD8EAD9FADAB97A80197010E94D4
:104DF0001F3B1B012C01AF966CAD7DAD8EAD9FAD01
:104E0000AF97A80197010E941F3B3B014C01A3965D
:104E1000EEADFFADA397EC59FF4FC158DF4FF983BB
:104E2000E883CF57D040E080F18002811381E9868A
:104E3000FA860B871C87A396EEADFFADA397E859C2
:104E4000FF4FCF57DF4FF983E883C158D040E08050
:104E5000F18002811381ED82FE820F831887A39671
:104E6000EEADFFADA397E459FF4FCD57DF4FF98368
:104E7000E883C358D040E080F18002811381E98249
:104E8000FA820B831C83C158DF4FA881B981CF57A9
:104E9000D040ED90FD900D911C91EDA6FEA60FA7C0
:104EA00018ABA396EEADFFADA397E059FF4FCB57DC
:104EB000DF4FF983E883C558D040A080B180C2801D
:104EC000D3806D817E818F8198859058EF962CAD2F
:104ED0003DAD4EAD5FADEF970E941F3B7B018C0156
:104EE00069817A818B819C81A20191010E941F3B83
:104EF0009B01AC01C801B7010E94D9387B018C012C
:104F0000C601B501A40193010E941F3B9B01AC01A6
:104F1000C801B7010E94D9389B01AC016DA57EA5DF
:104F20008FA598A90E94DA38C158DF4FA881B981AE
:104F3000CF57D0406D937D938D939C931397CF570C
:104F4000DF4FA881B981C158D040ED90FD900D91FF
:104F50001C91E9A6FAA60BA71CA7CB57DF4FE88147
:104F6000F981C558D040A080B180C280D3806985C6
:104F70007A858B859C85EF962CAD3DAD4EAD5FADB2
:104F8000EF970E941F3B7B018C0169817A818B81A5
:104F90009C81A40193010E941F3B9B01AC01C801AD
:104FA000B7010E94DA387B018C01C601B501A2016C
:104FB00091010E941F3B9B01AC01C801B7010E94F7
:104FC000D9389B01AC0169A57AA58BA59CA50E9447
:104FD000DA38CF57DF4FA881B981C158D0406D93DF
:104FE0007D938D939C931397CD57DF4FA881B98103
:104FF000C358D040ED90FD900D911C91EDA2FEA202
:105000000FA318A7CB57DF4FE881F981C558D040CF
:10501000A080B180C280D38069857A858B859C858C
:10502000A20191010E941F3B7B018C016D817E8159
:105030008F819885A40193010E941F3B9B01AC01C5
:10504000C801B7010E94D9387B018C01C601B501A6
:10505000EF962CAD3DAD4EAD5FADEF970E941F3B7F
:105060009B01AC01C801B7010E94DA389B01AC0179
:105070006DA17EA18FA198A50E94DA38CD57DF4F90
:10508000A881B981C358D0406D937D938D939C9333
:105090001397CB57DF4FE881F981C558D040A080E6
:1050A000B180C280D38069857A858B859C85A40177
:1050B00093010E941F3B7B018C016D817E818F815A
:1050C0009885A20191010E941F3B9B01AC01C80180
:1050D000B7010E94DA387B018C0169817A818B816A
:1050E0009C81EF962CAD3DAD4EAD5FADEF970E942C
:1050F0001F3B9B01AC01C801B7010E94D9389B013D
:10510000AC01C601B5010E94DA38CB57DF4FA88148
:10511000B981C558D0406D937D938D939C9313971F
:10512000C158DF4FE881F981CF57D040608171814C
:10513000828193812081318142815381CF57DF4F1A
:10514000A881B981C158D040AD90BD90CD90DC9080
:1051500013976D907D908D909C90CD57DF4FE88197
:10516000F981C358D0402080318042805380E08054
:10517000F18002811381E9A2FAA20BA31CA3CB57F1
:10518000DF4FA881B981C558D040ED90FD900D91B9
:105190001C911397ED8EFE8E0F8F18A3ED90FD904E
:1051A0000D911C91E98EFA8E0B8F1C8F0E941F3B74
:1051B0007B018C01C601B501A40193010E941F3B34
:1051C0009B01AC01C801B7010E94DA387B018C0158
:1051D000C201B10129A13AA14BA15CA10E941F3BD0
:1051E0009B01AC01C801B7010E94DA387B018C0138
:1051F0006D8D7E8D8F8D98A1298D3A8D4B8D5C8D17
:105200000E941F3B9B01AC01C801B7010E94DA3824
:105210000E944F227B018C01C158DF4FE881F98148
:10522000CF57D0406081718182819381A80197011D
:105230000E941F3BC158DF4FA881B981CF57D04092
:105240006D937D938D939C931397CF57DF4FE88198
:10525000F981C158D0406081718182819381A80118
:1052600097010E941F3BCF57DF4FA881B981C158DA
:10527000D0406D937D938D939C931397CD57DF4FC3
:10528000E881F981C358D040608171818281938126
:10529000A80197010E941F3BCD57DF4FA881B9811C
:1052A000C358D0406D937D938D939C931397CB57A8
:1052B000DF4FE881F981C558D040608171818281DA
:1052C0009381A80197010E941F3BCB57DF4FA88114
:1052D000B981C558D0406D937D938D939C9313975E
:1052E000C657DF4F0FB6F894DEBF0FBECDBFCF91CC
:1052F000DF911F910F91FF90EF90DF90CF90BF90C3
:10530000AF909F908F907F906F905F904F903F9065
:105310002F9008956F927F928F929F92AF92BF923B
:10532000CF92DF92EF92FF920F931F93DF93CF9371
:10533000CDB7DEB72C970FB6F894DEBF0FBECDBF4A
:105340004C013B015E010894A11CB11CB501AE01EA
:105350004D5F5F4F9E012B5F3F4F8E01095F1F4FD7
:10536000F9E0EF2EF12CEC0EFD1EEBE0CE2ED12C51
:10537000CC0EDD1E0E948F1F8F819885F401268937
:105380003789821B930B98878F8389859A85208D17
:10539000318D821B930B9A8789878B859C85228D03
:1053A000338D821B930B9C878B876501730100E013
:1053B00010E0F601208131810330110544F4B90178
:1053C000882777FD8095982F0E943F3A0DC0B9013C
:1053D000882777FD8095982F0E943F3A23E333E397
:1053E00043E851E40E94A439F7016083718382830A
:1053F00093830F5F1F4F82E090E0C80ED91EE4E058
:10540000F0E0EE0EFF1E0630110599F6F401648DF2
:10541000758D882777FD8095982F0E943F3A9B01D4
:10542000AC01F30160817181828193810E94D9383E
:10543000F40120A531A542A553A50E94A439F3018A
:105440006083718382839383F401668D778D8827CF
:1054500077FD8095982F0E943F3A9B01AC01F301A4
:1054600064817581868197810E94D938F40124A5D1
:1054700035A546A557A50E94A439F3016483758319
:1054800086839783F40160A171A1882777FD8095B9
:10549000982F0E943F3A9B01AC01F3016085718512
:1054A000828593850E94D938F40120A931A942A9A7
:1054B00053A90E94A439F30160877187828793877B
:1054C0002C960FB6F894DEBF0FBECDBFCF91DF9103
:1054D0001F910F91FF90EF90DF90CF90BF90AF9012
:1054E0009F908F907F906F9008952F923F924F9250
:1054F0005F926F927F928F929F92AF92BF92CF9264
:10550000DF92EF92FF920F931F93DF93CF93CDB76C
:10551000DEB7AA970FB6F894DEBF0FBECDBF3C0131
:105520007EA36DA3BE016F5F7F4F0E948A290E94F8
:105530007C377B018C0124E830E0620E731EF3019E
:1055400060837183828393832CE73FEF620E731E27
:10555000A0E8CA2ED12CC60CD71CF60180819181FF
:10556000A281B381A8019701281B390B4A0B5B0B61
:10557000CA01B9010E943D3A20E034E244E759E40F
:105580000E94A4399B01AC0160E070E080E89FE3D9
:105590000E94A43948E850E0640E751EF301608350
:1055A00071838283938328E73FEF620E731EF601B7
:1055B000E082F182028313832DB73EB7285030403A
:1055C0000FB6F8943EBF0FBE2DBF0DB71EB70F5FCD
:1055D0001F4F6D857E858F8598892BED3FE049E4CF
:1055E00050E40E941F3B20E030E044E353E40E947B
:1055F000A4396FA378A789A79AA769897A898B8923
:105600009C892BED3FE049E450E40E941F3B20E0E1
:1056100030E044E353E40E94A4391B012C016D895E
:105620007E898F89988D2BED3FE049E450E40E94FC
:105630001F3B20E030E044E353E40E94A4396B01B7
:105640007C0189809A80AB80BC808D819E81AF81F6
:10565000B885F80180839183A283B38389859A8575
:10566000AB85BC8584839583A683B783C3014FA193
:1056700058A569A57AA5920181010E94E82224E635
:1056800030E0620E731EF30181919191A191B1916D
:105690003F01EDA1FEA180839183A283B383F30137
:1056A00081919191A191B1913F01EDA1FEA18483DE
:1056B0009583A683B783F30181919191A191B191D3
:1056C0003F01EDA1FEA180879187A287B387F301F7
:1056D00080819181A281B381EDA1FEA1848795870C
:1056E000A687B7872DB73EB7285F3F4F0FB6F89410
:1056F0003EBF0FBE2DBFAA960FB6F894DEBF0FBEF9
:10570000CDBFCF91DF911F910F91FF90EF90DF9070
:10571000CF90BF90AF909F908F907F906F905F9051
:105720004F903F902F9008952F923F924F925F920B
:105730006F927F928F929F92AF92BF92CF92DF92A1
:10574000EF92FF920F931F93DF93CF93CDB7DEB706
:10575000A6970FB6F894DEBF0FBECDBF7E8B6D8BC4
:10576000BE016F5F7F4F0E94752A6D807E808F80A3
:1057700098848D859E85AF85B889898B9A8BAB8BF4
:10578000BC8BA980BA80CB80DC8029843A844B848E
:105790005C84C401B30129893A894B895C890E94E0
:1057A0001F3B7B018C01C601B501A20191010E9442
:1057B0001F3B9B01AC01C801B7010E94D9389B0176
:1057C000AC010E94DA386F8B788F898F9A8FC6016F
:1057D000B501A40193010E941F3B7B018C01C20112
:1057E000B10129893A894B895C890E941F3B9B0141
:1057F000AC01C801B7010E94DA389B01AC010E94DC
:10580000DA386B8F7C8F8D8F9E8FC601B501A60114
:1058100095010E941F3B7B018C01C401B301A401CF
:1058200093010E941F3B9B01AC01C801B7010E947C
:10583000D9387B018C01C201B101A20191010E9402
:105840001F3B9B01AC01C801B7010E94D9387B0105
:105850008C0169897A898B899C899B01AC010E94A2
:105860001F3B9B01AC01C801B7010E94DA386F8F62
:1058700078A389A39AA3C401B301A40193010E9450
:10588000DA386BA37CA38DA39EA3A20191010E9491
:105890001F3B7B018C01C601B50120E030E040E0F8
:1058A00050EC0E941F3B29893A894B895C890E94F0
:1058B0001F3B9B01AC01C801B7010E94DA381B01F4
:1058C0002C01C601B501A60195010E94DA38A60196
:1058D00095010E941F3B7B018C016BA17CA18DA1D6
:1058E0009EA1A40193010E941F3B9B01AC01C80132
:1058F000B7010E94DA3820E030E040E85FE30E9420
:10590000D9389B01AC01C201B1010E944D39AD896A
:10591000BE896D937D938D939C9313976F8D78A122
:1059200089A19AA19B01AC010E941F3B7B018C01C4
:105930006B8D7C8D8D8D9E8D9B01AC010E941F3BDC
:10594000A80197010E94DA380E94863B9B01AC01B6
:105950006F89788D898D9A8D0E94A4390E9478393B
:10596000ED89FE8964837583868397836F89788D3B
:10597000898D9A8D9B01AC010E941F3BA801970164
:105980000E94DA380E94863B9B01AC016B8D7C8DB6
:105990008D8D9E8D0E94A4390E947839AD89BE8973
:1059A00018966D937D938D939C931B97A6960FB637
:1059B000F894DEBF0FBECDBFCF91DF911F910F9145
:1059C000FF90EF90DF90CF90BF90AF909F908F901F
:1059D0007F906F905F904F903F902F9008950F931E
:1059E0001F938B010E94942BF80160817181828149
:1059F000938120EE3EE245E652E40E941F3BF8010F
:105A000060837183828393836481758186819781AA
:105A100020EE3EE245E652E40E941F3BF80164831B
:105A2000758386839783608571858285938520EE53
:105A30003EE245E652E40E941F3BF8016087718711
:105A4000828793871F910F910895CF92DF92EF92F3
:105A5000FF920F931F93AB019B012C5F3F4F8B0174
:105A60000A5F1F4FFB013896DB011A964E5F5F4FAE
:105A70007F016D010E948F1F1F910F91FF90EF908A
:105A8000DF90CF9008952F923F924F925F926F9246
:105A90007F928F929F92AF92BF92CF92DF92EF92BE
:105AA000FF920F931F93DF93CF93CDB7DEB7669727
:105AB0000FB6F894DEBF0FBECDBF1C0144245524A1
:105AC0000F2EF0E06F2EF0E07F2EF0E08F2EF0E052
:105AD0009F2EF02D6401530184017301C101BE01A9
